:020000041202E6
:1000000000200020C9BB021261BC02129D710020B9
:10001000DF71002013BC021213BC021213BC0212C7
:1000200000000000000000000000000013BC0212ED
:1000300013BC021200000000C170002081150712DD
:1000400013BC021213BC02122D8A06123F8A06123A
:10005000518A0612638A0612758A0612878A061268
:10006000998A0612AB8A061213BC0212A1B10212BF
:1000700013BC021213BC021213BC021213BC0212F4
:1000800013BC021213BC021213BC021213BC0212E4
:10009000C593061213BC021213BC021213BC021247
:1000A00013BC021213BC021213BC021213BC0212C4
:1000B00013BC021213BC021213BC021213BC0212B4
:1000C00013BC021213BC021213BC021213BC0212A4
:1000D00013BC021213BC021213BC021213BC021294
:1000E00013BC021213BC021213BC021213BC021284
:1000F00013BC021213BC02125D9F061213BC021243
:1001000013BC0212F1AF06129D890612AF890612C6
:10011000C1890612D3890612E5890612F7890612EB
:10012000098A06121B8A0612157906125D9A0612B2
:1001300013BC02121DAB06123D13071265D706123F
:1001400013BC021213BC021213BC021211150712C7
:1001500013BC021213BC021213BC021213BC021213
:10016000459F061213BC021213BC021213BC0212EA
:1001700023AB0612DDB3061229AB061213BC021222
:1001800013BC021213BC021213BC021213BC0212E3
:100190001995061213BC021213BC021213BC0212F0
:1001A00013BC02125513071213BC021213BC021225
:1001B00013BC021213BC021213BC021213BC0212B3
:1001C00013BC021213BC021213BC02120000000086
:1001D000000000000000000000000000000000001F
:1001E000000000000000000000000000000000000F
:1001F00000000000000000000000000000000000FF
:0402000000000000FA
:100204000138B0F1807F0BD24FF0E023E021054AA2
:10021400586182F823100020072298611A61704700
:100224000120704700ED00E0014B43F820107047B7
:1002340030B00C50014B53F82000704730B00C50D4
:1002440010B538B90C4A136823F001030024136075
:10025400204610BD02280AD106F0E2FF0128044618
:1002640005D140F22921054806F0D6FFF0E7024AFD
:10027400136843F00103E9E700A00C509C420F12FD
:10028400024A936E60F31D539366704700A00C50AE
:1002940038B550B1184C6368DBB2072B01D100208C
:1002A40038BD6368DBB20F2BF9D0134C6368DBB243
:1002B400072BF4D06368DBB20F2BF0D0102818D8CA
:1002C4000E4BC340DB0714D500294FF021040CBFAB
:1002D400202101210A4D8440EB6D814023EA04036F
:1002E4000B43EB65002ADAD041F2883005F0F6FEC4
:1002F400D5E70120D4E700BF00B0005001010100A0
:1003040000A00C5038B5EFF31083012585F3108855
:10031400022005F001FE284604F090FD2A46002143
:100324000820FFF7B5FF4FF4FA5005F0F9FE00205E
:1003340004F0FEFA044628B905F05EFE294620467C
:1003440004F0D4FB104B114C00206367FFF772FFDD
:10035400014620F07F4020F00F0028B941F4A0416D
:1003640041F05001FFF760FF23685B0706D523685F
:10037400074823F00403236005F0B0FE034A136822
:1003840043F004031360FEE715C0500A00A00C50AC
:10039400A0860100044B1A7822B118B1DB780370EF
:1003A4000020704701207047619C0020044B1A789C
:1003B40022B118B15B7B03700020704701207047A5
:1003C400619C0020F8B50746002004F0B1FA002132
:1003D4000446084604F08AFB04F0DCFA064604F0FE
:1003E400DCFA05463846FFF74BFF002005F076FEA1
:1003F400282005F073FE04F033FB04F039FB30468B
:1004040004F026FB284604F027FB2146002004F0D4
:100414006DFBBDE8F840002005F060BE2DE9F04F0B
:1004240089B018220446002102A806F0F3FD674BA8
:100434009A6E0023C2F3095200920193002C00F03B
:10044400A980634904F5EA33BF338B4203D9012001
:1004540009B0BDE8F08F002C00F39E806FF0160504
:100464006FF02F0B6FF0480A6FF064096FF081088A
:100474006FF0A00E6FF4927C6FF0E3076FF4987046
:10048400544E5549554B6442ADF81C1042F210715C
:10049400ADF81E30B4FBF1F3ADF81A00581EADF8F8
:1004A4001860C6B20A2E01FB1344ADF80850ADF82B
:1004B4000AB0ADF80CA0ADF80E90ADF81080ADF810
:1004C40012E0ADF814C0ADF8167078D808AD05EB9D
:1004D400400005EB430330F9180C33F9183C1B1AA0
:1004E400634393FBF1F30344134440F2FE3293421B
:1004F4000093ACD804226946032006F009FE0028C4
:10050400A5D0042203200DEB020106F061FE0028B1
:100514009DD0DDE900329A4299D104F0B9F805463C
:10052400002004F005FA064604F034FA804604F08C
:1005340034FA264A0746546F14F0010406D1536F67
:100544003C2043F00103536705F0C8FD0021084631
:1005540004F0CCFA0098FFF793FE282005F0BEFDC6
:1005640004F07EFA04F084FA404604F071FA384646
:1005740004F072FA0020314604F0B8FA002005F0C5
:10058400ADFD24B9114A536F23F001035367284684
:1005940004F082F800205BE716254FF02B0B4FF098
:1005A4003F0A4FF052094FF064084FF0750E4FF0B8
:1005B400860C9527A526B320C121CE2364E714FB1E
:1005C40005F494FBF1F4A3188FE700BF00A00C50CE
:1005D4007EA90300F6FEFFFFA4FEFFFF76FEFFFFE9
:1005E4002DE9F341364B9B6EC3F30953B3F5E57F15
:1005F400009353D04FF4E57304226946032000931B
:1006040006F086FD002857D0042203200DEB0201DA
:1006140006F0DEFD00284FD0DDE900329A424BD1CE
:1006240004F036F80546002004F082F9064604F08A
:10063400B1F9804604F0B1F9214A0746546F14F029
:10064400010406D1536F3C2043F00103536705F0C6
:1006540045FD0021084604F049FA0098FFF710FE12
:10066400282005F03BFD04F0FBF904F001FA4046B4
:1006740004F0EEF9384604F0EFF90020314604F0B6
:1006840035FA002005F02AFD24B90D4A536F23F0F2
:1006940001035367284603F0FFFF0BE00422032005
:1006A4000DEB020106F094FD0028A3D0DDE9003231
:1006B4009A429FD1002000E0012002B0BDE8F08101
:1006C40000A00C5070B590F82E3004460E4673B15D
:1006D40003F0DEFF0546204602F00AFC31462046C0
:1006E40002F0BFFB2846BDE8704003F0D5BF70BDE3
:1006F40003F0CABB03F0C8BB10B50C4603F0C4FB3F
:1007040020B12146BDE81040FFF7DCBF10BD00005A
:1007140008B503F097FB0A4B1B787BB100280DDB6F
:10072400084B03EB401006F0EFFC38B1BDE808407D
:1007340040F2D7120449054806F03EBD08BD00BF8B
:10074400BCB200208C4D0120873700200D680020AA
:1007540010B5044603F08CFB08B103F094FB044B82
:10076400186803F099FF2046BDE81040FFF7D0BF9A
:10077400884D012008B503F087FB18B1BDE8084097
:1007840002F0C6BA08BD0000034B1B7843FA00F020
:1007940000F00100704700BF844D012010B503F044
:1007A40051FB0F4B04461B78C3B1002816DBC0B2C3
:1007B400FFF7EAFF90B14FF0FF3006F091FC0146DD
:1007C400084800EB441006F03FFD38B1BDE8104086
:1007D40040F2C5120449054806F0EEBC10BD00BF46
:1007E400BCB200208C4D0120973700200D680020FA
:1007F40010B50446FFF7D2FF03F04AFF054B18601B
:10080400204603F035FB18B1BDE8104003F03ABBB5
:1008140010BD00BF884D01202DE9F84F07468A46D8
:10082400164603F031FB044600286FD0002E47D053
:1008340090F82B30002B69D1436B3D46002B5FD1E0
:1008440032463946504606F0DFFC39E02069FFF7AE
:10085400CFFF03F01DFF636B0746012098475946FD
:1008640023688029A8BF8021BBF1030FC3F88480CB
:1008740004DD4AEA05039B072A4624D008460AF108
:10088400FF332A18954236D1226882441368002027
:1008940023F0010313602368ABEB010BC3F88490CE
:1008A4002268136843F001031360636B984738466A
:1008B40003F0F2FE2069FFF74BFFBBF1000FC5DC2C
:1008C4003046BDE8F88FAAF1040055F8043B40F81F
:1008D400043F531B0B44032BF7DC6FF003008B081E
:1008E400013B4343043208180AF1040A1844D51A98
:1008F400AAEB030AC3E715F801CB03F801CFC1E75C
:10090400B3464FF6FF784FF0FF09D6E70026D7E746
:100914002DE9F04F85B083460F46914603F0B4FAB3
:10092400044620B90026304605B0BDE8F08FB9F181
:10093400000FF7D090F82B30002BF3D187EA0B038C
:10094400DA0001D4FB0006D47B1E4B447B40B3F594
:10095400801FC0F08E80484606F012FC02900028EA
:10096400E0D039464A4606F04FFC029F2569002133
:10097400AB45204634BF5D46ABEB0505FFF7A2FE51
:100984004946384606F01CFC94F82C60002E73D0BF
:1009940015F0010670D02069FFF72AFF3A46294670
:1009A4000123204602F0F6F82069FFF7D1FE012664
:1009B4000135013709F1FF38B8F1000F2ADD4FF492
:1009C400807294F82C309A4002F1FF3A0AEA050A40
:1009D400BAF1000F019267DDA2EB0A0AC245A8BF73
:1009E400C2462069002B49D01AF0010F46D0FFF708
:1009F400FFFE3A4629462AF00103204601F0E5FFAE
:100A040000233A182918204602F0C4F82069FFF799
:100A14009FFE564401212046FFF754FEB9F1000F12
:100A24001FDD0BF01F024A442BF01F03BFF34F8F4F
:100A3400194647481A44C0F85C122031541A002C55
:100A4400F9DCBFF34F8FBFF36F8FBFF34F8FC0F845
:100A540058322033D11A0029F9DCBFF34F8FBFF38A
:100A64006F8F029B002B3FF45EAF184606F044FBE9
:100A740059E70023029379E7C8469DE7FFF7B8FEDC
:100A840053463A462946204601F09FFF03902069C9
:100A9400FFF75EFE039B9A4501D00026BAE7554452
:100AA4005744A8EB0A085644AA467B1B0393039BAE
:100AB40003EB0A07019B434529DD751BB8F1000FC1
:100AC40005EB0A06A6DD94F82C30206983B318F0F0
:100AD400010F2DD0FFF78CFE51463A4628F0010352
:100AE400204601F072FF05462069FFF731FEAA4453
:100AF40020693D44FFF77CFE00232A4651462046E8
:100B040002F048F82069FFF723FE464482E7206993
:100B1400FFF76EFE5146019B3A46204601F055FF11
:100B24002069FFF715FE019B9A44A8EB0308BEE772
:100B3400FFF75EFE43463A465146204601F045FF24
:100B440005462069FFF704FEA845A6D1DDE700BFEE
:100B540000ED00E02DE9F84F06460F4603F094F946
:100B64000546002800F0C380002F00F0C08090F8F4
:100B74002B30002B40F0BD804069B846B8423AD3D0
:100B84002B693DD12869FFF733FE00212846FFF782
:100B940099FD284602F069F8012104462846FFF72A
:100BA40091FD2869FFF7D4FD002F1FDD06F01F0318
:100BB400434426F01F06BFF34F8F32464E49334459
:100BC400C1F85C2220329D1A002DF9DCBFF34F8F4F
:100BD400BFF36F8FBFF34F8FC1F8586220369A1B53
:100BE400002AF9DCBFF34F8FBFF36F8F201E18BFAD
:100BF4000120BDE8F88F0028FBD007468046C1E7F6
:100C04004FF4805A9E4234BFB146A6EB030995F8CF
:100C14002C300AFA03F3591E11EA090F0BD0CB2228
:100C24003649374806F0C8FA4FF0FF340121284608
:100C3400FFF748FDB8E7394001D0D122F0E77C1E28
:100C44005A421C44284609EA020914404FF4803BE6
:100C5400FFF738FD95F82C300BFA03F2511E11EA18
:100C6400090F07D1A24205D84FF4803202FA03F1EA
:100C74008C420CD20AFA03F2A24203D8013A12EAD5
:100C8400090F2FD0003C18BF01246442CEE7286925
:100C9400FFF7AEFD4946284601F0C0FF2869FFF77B
:100CA40057FD4FF4803295F82C3002FA03F1641AA0
:100CB4008944DBE72869FFF79BFD4946284601F094
:100CC40086FF2869FFF744FD95F82C300AFA03F2F1
:100CD4009144A41A0BFA03F2511E11EA090F01D12F
:100CE4009442B7D20AFA03F39C42E3D2CAE7012042
:100CF4007FE700207DE700BF00ED00E076370020AD
:100D040019680020F7B5154D2C781CBB144B6F46A1
:100D14009A8818689B79ADF804208DF80630009005
:100D240003F05EF901220F4B0F4E28701A70E2B2E5
:100D34001046FFF729FD40B131328DF8052000231C
:100D440001223946304606F0BFF90134052C06F17C
:100D54002006ECD1287803B0F0BD00BF844D0120FB
:100D64001B680020BCB200208C4D012008B5FFF7A1
:100D7400C9FF002008BD72745F6E6F725F65726197
:100D840073655F726F6D0072745F666C6173685F28
:100D9400756E6C6F636B0072745F666C6173685F11
:100DA4006C6F636B000000207047002070470000E8
:100DB400F8B504460138C0B2FD2816D800250D4EFA
:100DC40056F8040B077837B90135062DF8D12046BB
:100DD400FFF7EBFF0DE0A74205D14778974202D118
:100DE40087788F4203D00830ECE7002001E003B19C
:100DF4001D70F8BD6838002007B50DF10703FFF733
:100E0400D7FF064B40B14FF405719DF8072001FB55
:100E1400023003B05DF804FB1846FAE7B03A00204C
:100E240008B50023FFF7C4FF08B1406808BD4FF4BC
:100E34000020FBE708B50023FFF7BAFF10B1C07824
:100E440000F0010008BD000008B50023FFF7B0FF63
:100E540030B1C378034803F00603022B18BF002007
:100E640008BD00BF00C0FF00E83900203839002069
:100E7400F8380020D8380020A83800208038002016
:100E8400C225390000000002C2253700000080009E
:100E9400C2201901000000022570180000000001A2
:100EA40000000000000000002041190000000002C2
:100EB4002040190000000002204319000000000235
:100EC400852019010000000285201A010000000499
:100ED4000000000000000000C860190000000002CB
:100EE4000B40190000000002C84019000000000275
:100EF4000000000000000000EF6019000000000284
:100F0400EF70190100000002E54219000000000220
:100F1400EF401900000000026849190000000002B7
:100F24005E40190000000002A160190100000002E7
:100F34000000000000000000856016010000400071
:100F44008542160100004000856017010000800002
:100F5400856018010000000185651801000000018A
:100F6400856318010000000185201701000080003E
:100F740085201801000000012570160000004000C3
:100F8400EF601800000000010B6018000000000171
:100F94005E50180000000001A128180000000001A4
:100FA400C843180100000001C840180000000001F7
:100FB400C840170000008000204017010000800096
:100FC400CD60180000000001B3401701000080004C
:100FD400B340160100004000B3601400000010008C
:100FE40000000000000000008560150100002000E2
:100FF40085601401000010008560130000000800E3
:10100400C860140000001000C86015000000200033
:10101400C860160000004000C8601700000080008F
:10102400C8601800000000010B4017000000800099
:10103400F8421800000000015E70170000008000F4
:101044005E40180000000001EF6016000000400040
:101054002040180100000001204118000000000198
:101064002050180000000001EB6013000000100085
:10107400EB601400000010001C4018000000000188
:10108400684017000000800068401800000000015C
:101094000B40180000000001B340180100000001DB
:1010A400EF401800000000010000000000000000F4
:1010B400008560150000030000000001001000001E
:1010C4000600000000000000010400000000000011
:1010D4000001050001000000000001010101000001
:1010E40000000001000000000000000000030001F7
:1010F4000000000201010B00010800000201013B95
:1011040000020800000201016B0003080000020154
:1011140001BB0002000002020201EB000304000311
:101124000203019F00010000000000010000000014
:1011340000000000000000000000000000000000AB
:10114400000000000000000000000000000000009B
:10115400000000000000000000000000000000008B
:10116400000099000000000000000166000000007B
:1011740000000001350001000000000001500000E3
:101184000000000000010201010000000201013220
:101194000103000000020101000000000000000043
:1011A40000000000000000000000810000000000BA
:1011B40002010120000000000002010152000000B1
:1011C4000000020101D800000000000201016000DB
:1011D400000000000000010000000000000000000A
:1011E40000000000000000000000000000000000FB
:1011F40000000000000000000000000000000000EB
:1012040000000000000000000000000000000000DA
:1012140000000000000000000000000000000000CA
:1012240000000000000000000000000000000000BA
:1012340000000000000000000000000000000000AA
:10124400000000000000000000000000000000009A
:10125400000000000000000000000000000000008A
:10126400000000000000000000000000000000007A
:101274000000000000000000004B00010800000214
:1012840001014800010800000201014201010000BF
:1012940000020101440000000000020101B9000045
:1012A400000000000001AB0000000000000001EDA0
:1012B40000070700070207015A00010800000201A5
:1012C400010000000085601600000300000000011A
:1012D40000100000060000000000000001040000EF
:1012E40000000000000105000100000000000101F1
:1012F40001010000000000010000000000000000E7
:10130400000300010000000201010B0001080000BD
:101314000201013B00020800000201016B00030806
:101324000000020101BB0002000002020201EB0006
:10133400030400030203019F0001000000000001F8
:101344000000000000000000000000000000000099
:101354000000000000000000000000000000000089
:101364000000000000000000000000000000000079
:101374000000000000009900000000000000016669
:101384000000000000000001350001000000000022
:1013940001500000000000000001020101000000F3
:1013A40002010132010300000002010100000000FB
:1013B40000000000000000000000000000008100A8
:1013C40000000000020101200000000000020101F1
:1013D400520000000000020101D8000000000002D9
:1013E4000101600000000000000001000000000096
:1013F40000000000000000000000000000000000E9
:1014040000000000000000000000000000000000D8
:1014140000000000000000000000000000000000C8
:1014240000000000000000000000000000000000B8
:1014340000000000000000000000000000000000A8
:101444000000000000000000000000000000000098
:101454000000000000000031010100000000000154
:101464000000000000000000000000000000000078
:101474000000000000000000000000000000000068
:10148400000000000000000000000000004B00010C
:1014940008000002010148000108000002010142A5
:1014A40001010000000201014400000000000201EB
:1014B40001B90000000000000001AB0000000000C2
:1014C400000001ED00070700070207015A000108A8
:1014D400000002010100000000EF60190000030099
:1014E40000000001001000000600000000000000E1
:1014F40001040000000000000001050001000000DC
:1015040000000101010100000000000100000000D2
:1015140000000000000300010000000201010B00B4
:10152400010800000201013B000208000002010161
:101534006B0003080000020101BB0002000002026C
:101544000201EB00030400030203019F00010000F9
:101554000000000100000000000000000000000086
:101564000000000000000000000000000000000077
:101574000000000000000000000000000000000067
:1015840000000000000000000000990000000000BE
:1015940000000166000000000000000135000100A9
:1015A40000000000015000000000000000010201E2
:1015B40001000000020101320103000000020101E8
:1015C400C80001000000000001C501010000000086
:1015D4000001810000000000020101200000000061
:1015E40000020101520000000000020101D80000C5
:1015F400000000020101600000000000000001156D
:1016040000010000000000011101010000000000C1
:1016140001B70000000000000001E9000000000024
:101624000000011300010000000301010C00010887
:1016340000000301016C0003080000030101EC0039
:10164400030400030303011201010000000301016C
:101654003401030000000301012100000000000325
:101664000101DC0000000000030101000000000093
:101674000000000000000000000000000000000066
:101684000000000000000000000000000000000056
:101694000000000000000000000000000000000046
:1016A400004B00010800000301014800010800008C
:1016B4000301014201010000000301014400000094
:1016C4000000030101B90000000000000001AB00AC
:1016D40000000000000001ED0007070007030701F8
:1016E4005A000108000002010100000000C860194E
:1016F40000000300000000010010000006000000CC
:1017040000000000010400000000000000010500CA
:1017140001000000000001010101000000000001BF
:1017240000000000000000000003000100000002AF
:1017340001010B00010800000201013B0002080046
:10174400000201016B0003080000020101BB00025A
:10175400000002020201EB00030400030203019FE4
:101764000001000000000001000000000000000073
:101774000000000000000000000000000000000065
:101784000000000000000000000000000000000055
:1017940000000000000000000000000000009900AC
:1017A40000000000000001660000000000000001CD
:1017B400350001000000000001500000000000009E
:1017C40000010201010000000201013201030000D6
:1017D40000020101C80001000000000001C5010170
:1017E400000000000001810000000000020101204F
:1017F400000000000002010152000000000002018C
:1018040001D8000000000002010160000000000097
:101814000000011500010000000000011101010099
:101824000000000001B70000000000000001E90012
:10183400000000000000010300010000000301019A
:101844000B00010800000301016B00030800000302
:101854000101EB0003040003030301020101000082
:101864000003010132010300000003010120000014
:10187400000000030101D800000000000301010082
:101884000000000000000000000000000000000054
:101894000000000000000000000000000000000044
:1018A4000000000000000000000000000000000034
:1018B40000000000004B0001080000030101480083
:1018C40001080000030101420101000000030101BD
:1018D400440000000000030101B900000000000002
:1018E4000001AB0000000000000001000000000047
:1018F400000000005A00010800000201010000007D
:101904000020411900000300000000010010000045
:1019140006000000000000000104000000000000B8
:1019240000010500010000000000010101010000A8
:10193400000000010000000000000000000300019E
:101944000000000201010B00010800000201013B3C
:1019540000020800000201016B00030800000201FC
:1019640001BB0002000002020201EB0003040003B9
:101974000203019F000100000000000100000000BC
:101984000000000000000000000000000000000053
:101994000000000000000000000000000000000043
:1019A4000000000000000000000000000000000033
:1019B4000000990000000000000001660000000023
:1019C400000000013500010000000000015000008B
:1019D40000000000000102010100000002010132C8
:1019E4000103000000020101C80001000000000022
:1019F40001C5010100000000000181000000000099
:101A04000201012000000000000201015200000058
:101A14000000020101D80000000000020101600082
:101A2400000000000000011500010000000000019A
:101A3400110101000000000001B7000000000000D7
:101A44000001E90000000000000001130001000093
:101A5400000301010C00010800000301016C0003F4
:101A6400080000030101EC00030400030303011256
:101A7400010100000003010134010300000003011F
:101A840001210000000000030101DC00000000004F
:101A94000301013101010000000000010000000009
:101AA4000000000000000000000000000000000032
:101AB4000000000000000000000000000000000022
:101AC4000000000000000000004B000108000003BB
:101AD4000101480001080000030101420101000066
:101AE40000030101440000000000030101B90000EB
:101AF400000000000001AB00000000000000010035
:101B040000000000000000005A000108000002016B
:101B14000100000000C225390000003C6000000004
:101B24000010000006000000000000000104000096
:101B34000000000000010500010000000000010198
:101B4400010100000000000100000000000000008E
:101B5400000300010000000201010B000108000065
:101B64000201013B00020800000201016B000308AE
:101B74000000020101BB0002000002020201EB00AE
:101B8400030400030203019F0001000000000001A0
:101B94000000000000000000000000000000000041
:101BA4000000000000000000000000000000000031
:101BB4000000000000000000000000000000000021
:101BC4000000000000009900000000000000016611
:101BD4000000000000000001000000000000000000
:101BE40000000000000000000000020101000000ED
:101BF400020101320103000000020101C8000100DA
:101C04000000000001C50101000000000001810086
:101C14000000000002010120000000000002010198
:101C2400520000000000020101D800000000000280
:101C34000101600000000000000001150001000027
:101C440000000001110101000000000001B70000C4
:101C5400000000000001E900000000000000010392
:101C640000010000000301010B0001080000030152
:101C7400016B0003080000030101EB0003040003EF
:101C8400030301020101000000030101320103000A
:101C94000000030101200000000000030101D8003E
:101CA400000000000301010000000000000000002B
:101CB4000000000000000000000000000000000020
:101CC4000000000000000000000000000000000010
:101CD400000000000000000000000000004B0001B4
:101CE40008000002010100000000000000000000E4
:101CF40000000000000000000000000000000000E0
:101D040000B90000000000000001AB00000000006A
:101D14000000010000000000000000005A0001085B
:101D2400000002010100000010B5E0B1D9B10023A8
:101D34000122436080F82A200C6804604A6880F815
:101D440028208A680261CA6812054261FF22C4F829
:101D540084204FF0502401688C6701680A6201688E
:101D640018464A6410BD0120FCE738B1026800201F
:101D7400136C23F0FF03194311647047012070476B
:101D840070B5C8B105689DF918609DF91C00AC6C6C
:101D940040EAC60040EAC3239DF910006FF314041F
:101DA40043EA00239DF9140043EA801343EA4232D4
:101DB40042EA81412143A96470BD40B10268002018
:101DC400136C23F47F4343EA01211164704701201B
:101DD400704770B5C8B105689DF918609DF91C007D
:101DE4002C6D40EAC60040EAC3239DF910006FF34E
:101DF400140443EA00239DF9140043EA801343EAE0
:101E0400423242EA81412143296570BD18B1036819
:101E14000020596070470120704730B103680139D0
:101E2400C1F313010020596270470120704730B19B
:101E340003680139C1F3130100209963704701203D
:101E4400704708B103681962704718B103681869CC
:101E540000F00100704720B10268536943F00103A8
:101E64005361704738B50D460446A8B10368DA617A
:101E7400436B0BB10120984723689D612046FFF70F
:101E8400E4FF0028FAD02046FFF7E5FF636B0BB1AF
:101E940000209847002038BD0120FCE718B10268F3
:101EA400536919435161704718B103681869C0F345
:101EB400C000704728B103685868C04300F00100AF
:101EC40070470120704708B103685868704720B113
:101ED4000268536D61F38E235365704708B103683C
:101EE400D960704710B10368D868C0B2704770B544
:101EF400E8B105689DF91C609DF92000AC6A40EAD0
:101F0400C6009DF910606FF3150440EAC6209DF9E0
:101F1400146040EA06209DF9186040EA861040EA01
:101F2400433343EA824242EA41512143A96270BDEC
:101F340070B5E8B105689DF91C609DF92000EC6B53
:101F440040EAC6009DF910606FF3150440EAC6200C
:101F54009DF9146040EA06209DF9186040EA861055
:101F640040EA433343EA824242EA41512143E9636E
:101F740070BD50B103681A6821B142F0010200201B
:101F84001A60704722F00102F9E70120704750B14E
:101F940003681A6821B142F4001200201A607047E5
:101FA40022F40012F9E70120704750B103689A68DF
:101FB40021B142F0100200209A60704722F0100212
:101FC400F9E70120704750B103681A6821B142F45F
:101FD400803200201A60704722F48032F9E7012031
:101FE400704750B103681A6821B142F4802200207E
:101FF4001A60704722F48022F9E70120704730B557
:1020040080B10568BDF80C00AC68800640EA8353D3
:10201400002043EA81416FF39E1441EA8212224375
:10202400AA6030BD0120FCE730B10268002093684B
:1020340061F30203936070470120704750B1036855
:102044009A6821B142F0200200209A60704722F081
:102054002002F9E70120704750B103681A6821B1E2
:1020640042F0807200201A60704722F08072F9E713
:102074000120704750B103681A6821B142F400028C
:1020840000201A60704722F40002F9E7012070472B
:1020940050B103689A6821B142F0004200209A606E
:1020A400704722F00042F9E70120704750B10368FD
:1020B4009A6821B142F0080200209A60704722F029
:1020C4000802F9E70120704740B102680020936DCF
:1020D40023F47F0343EA014191657047012070476F
:1020E40060B100685206836D42EA012123F0007357
:1020F40023F47F4319438165002070470120704712
:1021040010B5F0B10468A06DB1B1022A84BF023ADF
:10211400D2B213026FF30F0003F4FE43034312061B
:1021240054BF43F0806343F0A06343F00A0323F0F9
:1021340000730020A36510BD034B034043F00073FC
:10214400F7E70120F7E700BF0000FFFA30B10268AB
:10215400936C23F4783343EA41319164704730B18E
:102164000268136D23F4783343EA413111657047F3
:1021740048B10368D3F8882009B141F480310020C4
:10218400C3F8881070470120704718B10368D3F86A
:10219400880080B270477FB5054600283DD0C468EA
:1021A40001B394F86A30002B37D094F9726094F933
:1021B4006E3094F96C1094F96D20039694F9716063
:1021C400029694F97060019694F96F400094FFF7B9
:1021D400D7FDEB6893F86A102846FFF7C6FD002088
:1021E40004B070BD94F84630BBB194F94E6094F9D4
:1021F4004A3094F9481094F94920039694F94D60B3
:10220400029694F94C60019694F94B400094FFF7C0
:10221400B7FDEB6893F84610DEE70120E0E77FB5F1
:102224000546002836D0C468E1B194F96E6194F98A
:102234006A3194F9681194F96921039694F96D61EE
:10224400029694F96C61019694F96B410094FFF73E
:1022540097FDEB6893F866112846FFF786FD00208A
:1022640004B070BD94F95C6194F9583194F9561135
:1022740094F95721039694F95B61029694F95A6193
:10228400019694F959410094FFF77AFDEB6893F8AD
:102294005411E1E70120E3E730B5C46887B004B323
:1022A40038291ED801EBC1010C44237CCBB194F92D
:1022B400185094F9133094F9122094F911100495DC
:1022C40094F91750039594F91650029594F9155002
:1022D400019594F914400094FFF709FE002007B01B
:1022E40030BD0120FBE7F0B5C4680646174687B049
:1022F40054B3382928D801EBC1052C44237C1BB3E3
:1023040094F918C094F9133094F9122094F9111027
:10231400CDF810C094F917C0CDF80CC094F916C0CC
:10232400CDF808C094F915C0CDF804C094F9144050
:102334000094FFF7DCFDF3683A462B443046197CE1
:10234400FFF790FD07B0F0BD0120FBE72DE9F04158
:102354009046C268044686B0002A72D0382970D8E4
:1023640001EBC107D619317C00296AD0382B68D813
:1023740003EBC3052A44137C002B62D096F918C0E2
:1023840096F9133096F9122096F91110CDF810C071
:1023940096F917C0CDF80CC096F916C0CDF808C050
:1023A40096F915C0CDF804C096F914600096FFF7AD
:1023B4009EFDE068284490F9186090F9133090F974
:1023C400122090F91110049690F91760039690F971
:1023D4001660029690F91560019690F91400009029
:1023E4002046FFF7A5FD002223680121DA67E36890
:1023F40022682B441B7C2046D36223680C9AC3F8C2
:102404008020FFF7E0FD2046FFF7EBFD2368C3F8CB
:102414001C80E36822683B441B7C93612046FFF7E1
:1024240043FD0028FAD009212046FFF737FD00219B
:10243400FFF7C9FD2046FFF7D4FD084606B0BDE806
:10244400F0810120FAE7000070B50446002841D06D
:10245400C368002B3ED000293CD093F8935101214E
:10246400CDB3FFF7DAFC002214212046FFF73BFF2F
:102474002046FFF728FDC30704D540F287413D48B5
:1024840004F0CAFE002215212046FFF72CFF054662
:1024940020B1002220461146FFF725FF02212046E5
:1024A400FFF7B4FC01212046FFF7B7FC00222B21E3
:1024B4002046FFF718FF6DB101212046FFF7ADFC60
:1024C400002202212046FFF70EFF2046FFF7F2FC10
:1024D4000028F5D070BDFFF7A0FC2A460221204653
:1024E400FFF701FF2046FFF7EEFC2A4614212046A1
:1024F400FFF7F9FE10B92046FFF7E5FCE3681B7A05
:10250400ABB3012103F00F051B0901FA03F3DBB29E
:102514000DB11D46002300221521204643EA05255E
:10252400FFF7E1FE064620B1002220461146FFF7E0
:10253400DAFE29462046FFF769FC02212046FFF710
:102544006CFC002203212046FFF7CDFE002EC1D0F3
:1025540001212046FFF761FC002202212046FFF7FB
:10256400C2FE2046FFF7A6FC0028F5D0B2E70225FC
:10257400D1E700BF2E66002038B504460D46FFF7AC
:1025840063FF29462046BDE83840FFF704BE38B54E
:1025940004460D46FFF758FF29462046BDE838405B
:1025A400FFF73DBE10B5044640B10268936A6FF36D
:1025B400150343F4802343F001039362032120466F
:1025C400FFF72BFC00229F212046FFF74BFC2046FF
:1025D400FFF779FC20F07F4010BD70B50446002859
:1025E4003ED0C368012193F89351002D3BD0FFF7EF
:1025F40014FC002202212046FFF775FE88BB20460A
:10260400FFF761FCC0B2E368DD790DB120EA05058E
:10261400002215212046FFF766FE064620B100225F
:1026240020461146FFF75FFE29462046FFF7EEFBE2
:1026340001212046FFF7F1FB002203212046FFF78A
:1026440052FE6EB101212046FFF7E7FB0022022172
:102654002046FFF748FE2046FFF72CFC0028F5D063
:1026640070BD0020CFE7FFF7D8FB2A4602212046A1
:10267400FFF739FE00283ED12046FFF724FCC6B2FE
:10268400002214212046FFF72EFE18B92046FFF73A
:102694001AFCC5B2E368D97909B126EA010100221E
:1026A400204641EA05251521FFF71DFE064620B107
:1026B400002220461146FFF716FE29462046FFF762
:1026C400A5FB02212046FFF7A8FB00220321204698
:1026D400FFF709FE002EC3D001212046FFF79DFB22
:1026E400002202212046FFF7FEFD2046FFF7E2FB11
:1026F4000028F5D0B4E72E46C2E7F8B5044650B337
:102704000023FF2201214FF050260568436080F822
:102714002A1080F82830C5F884200568AE6705685B
:102724002A6205686A6480F82B308360FFF721FC15
:102734002046FFF737FFC0F30727C0F30745C6B2AB
:1027440029463A463046FEF757FB0146E06020B979
:102754002046FFF70EFC01200AE03A46294630469F
:10276400FEF75EFB00B1606194F82B500DB10020C0
:10277400F8BD2046FFF731FF6369B3F1807F0DD9BF
:1027840021212A462046FFF7AEFD94F8281019B9F6
:102794002046FFF7FCFEEAE70121F9E794F8281048
:1027A40019B92046FFF7E8FEE1E70121F9E760B136
:1027B400006850B1836D090623F0807301F08071C5
:1027C40023F0FF0311431943816570472DE9F04756
:1027D40091460546002844D0C468B4B1B1F5805F81
:1027E4003FD3A2790132B1EB023F3AD2E07AC1F38E
:1027F40009021A44B2EB002F33D81C460027A24624
:10280400AB6BCE18BAF1000F02DC2046BDE8F087AE
:10281400BAF1400FD046A8BF4FF0400828464146C1
:10282400FFF7FBFA324632212846FFF75CFD3B46B0
:10283400002FB8BFFB1C4FEAA80123F0030201EBF1
:10284400A3014A4409EB81018A4204D14744464426
:10285400AAEB080AD6E72846FFF735FB42F8040B33
:10286400F2E70024D1E710B50446F8B1C368EBB130
:102874000121FFF7D2FA002214212046FFF733FD8D
:1028840028B92046FFF71FFBC0B2C00810BD0221C3
:102894002046FFF7C2FA002202212046FFF723FD5B
:1028A4002046FFF710FBC0F30720EEE7FF20EDE71B
:1028B40038B50446D0B10368AB211D6815F0010595
:1028C40002BF1A6842F001021A600268936A6FF349
:1028D400150343F0010393620022FFF7C3FA25B9FD
:1028E4002268136823F00103136038BD0120FCE75C
:1028F40018B1C068003818BF012070470020704725
:102904002DE9F047884699460446002845D0836857
:10291400002B42D0B9F1000F3FD001680F6832B3E9
:1029240010229A60002382684E4653618268936144
:102934008268D360802283681A6105680435A068C0
:1029440004F066FC50BBA06804F0B6FB30BB2368FF
:1029540047F020071F60226809F1FF3353624146A4
:1029640033462A46A068BDE8F04704F0DDBB4FF4C7
:1029740000719A60836809F1030659614FF400619C
:102984008368454699618368B608DA608022836863
:102994001A61036803F10408D1E70120BDE8F08758
:1029A40010B50A46044670B1806860B1616B11B11C
:1029B4004FF0FF32002104F08FFB2268136823F0EC
:1029C4002003136010BD0120FCE72DE9F04F99B0FE
:1029D40004460E469146FFF78BFF18B3002B00F018
:1029E400D780B3F5807F28BF4FF48073A1681D465C
:1029F400626994F8283000293BD0B2F1807F14D961
:102A0400022B14BF2727282739462046FFF744FC0A
:102A140049462B4601222046FFF772FF014648B182
:102A24000025284619B0BDE8F08F022B14BF1627E5
:102A34001727E9E732462046FFF755FC01212046D7
:102A4400FFF7F5F901233246009339460223204665
:102A5400FFF77CFC0028E3D14FF47A712046FFF79E
:102A64009FFF0028DCD12268136823F02003136041
:102A7400D7E7B2F1807F40F28280022B14BF272374
:102A840028232F464FF0000803934FF6FC7A402F7B
:102A9400D4BF0AEA070A0AF0400ABAF1000F3FD08D
:102AA400002220461146FFF71EFC09EB08030DF136
:102AB400200C03F1400E624618685968083303C2BB
:102AC40073459446F7D14FF0000B4FEAAA0208ABC6
:102AD40053F8041B204605920493FFF797F9059ACF
:102AE4000BF1010B9345049BF2D151462046FFF7AD
:102AF40094F92046039906EB0802FFF7F4FB012141
:102B04002046FFF78AF9002202212046FFF7EBFB5B
:102B14002046FFF7CFF90028F1D0A7EB0A07D044ED
:102B24007B1E022B30D82369464433431B683A4644
:102B340009EB080107A8079304F066FB002220466E
:102B44001146FFF7D0FB07992046FFF75FF90421F0
:102B54002046FFF762F9324620460399FFF7C3FB8C
:102B640001212046FFF759F9002202212046FFF7F0
:102B7400BAFB2046FFF79EF90028F1D051E7022B5B
:102B840014BF162317237CE7002F3FF77EAF48E7D7
:102B9400184647E737B5046912780C4373B114F843
:102BA400013C01398DF8063002238DF807200DF120
:102BB4000602FFF70AFF012003B030BD63788DF8E9
:102BC40006208DF807300DF106020223F1E773B5F4
:102BD40004460D46FFF78CFEE8B163690A46B3F17B
:102BE400807F4FF00001204694BF1B262926FFF763
:102BF4007AFB01212046FFF71AF901232A460093A4
:102C0400314602232046FFF7A1FB003818BF0120FC
:102C1400404202B070BD4FF0FF30FAE773B504468E
:102C24000D46FFF765FEE8B163690A46B3F1807F9C
:102C34004FF00001204694BF1D262A26FFF753FBC0
:102C440001212046FFF7F3F801232A460093314679
:102C540002232046FFF77AFB003818BF01204042C8
:102C640002B070BD4FF0FF30FAE773B50446FFF7CA
:102C74003FFE30B30022012611462046FFF733FB06
:102C840001212046FFF7D3F8022300221E2120460B
:102C94000096FFF75BFB051E18BF012594F828304A
:102CA4006D42022B07D163693146B3F1807F204620
:102CB40004D9FFF76CFC284602B070BDFFF75CFC3A
:102CC400F9E74FF0FF35F6E708B5E8B103680F4AB6
:102CD40093420CD002F58052934215D1062001F0A4
:102CE40027FE022805D1BDE8084001F056BE0420A5
:102CF400F5E7032803D1BDE8084001F051BE0120E7
:102D0400BDE8084001F0BCBE002008BD001004501E
:102D140038B5054608B9002038BDFFF7E3F8044686
:102D24000028F8D02846FFF7CFFFB0FBF4F0F3E714
:102D340008B1FFF737BCFF207047F7B50D460446CE
:102D440018B94FF0FF3003B0F0BDC368002BF8D0C2
:102D5400B1F5805F876BF4D39B790133B1EB033F0B
:102D6400EFD2FFF780FDE2682B0B92790132B2EBD0
:102D7400153FE6D90126013B06FA03F313EA0002E4
:102D840014D111462046FFF7AEFA3D4431462046A1
:102D9400FFF74DF802232A46342120460096FFF718
:102DA400D5FA002818BF6FF00200CCE76FF00100DD
:102DB400C9E72DE9F7430E4617461D46044618B9E0
:102DC400002003B0BDE8F083C268002AF8D0B1F552
:102DD400805FF5D393790133B1EB033FF0D2D27A1C
:102DE400C1F309032B44B3EB022FE9D8D0F83880A0
:102DF400FFF739FDE268330B92790132B2EB163FEB
:102E0400DED94FF00109013B09FA03F30342D7D19C
:102E1400A36823B333212046FFF73EFA4A462B46E4
:102E240039462046FFF76CFD02460028C8D101460A
:102E34002046FFF758FA49462046FEF7F8FF0223DA
:102E440033212046CDF8009008EB0602FFF77EFA06
:102E54000028B5D12268136823F0200313602846A4
:102E6400AFE77FB504460A4651B3C56895F8FF310C
:102E7400002B3BD090F82830C3B395F9076295F93D
:102E8400022295F9033295F90112039695F9066227
:102E9400029695F90562019695F904520095FEF79C
:102EA4006FFFE368204693F8FF11FEF75EFF0121F0
:102EB400204694F82D20FFF723F9002004B070BDBC
:102EC400FFF71EF9636994F82810B3F1807F06D9DF
:102ED40019B92046FFF7A3F9EFE70121F9E719B97A
:102EE4002046FFF758F9E8E70121F9E70120E5E773
:102EF40030B50546012487B078B1049400242246F5
:102F040021462346CDE90244CDE90044FEF7EFFF14
:102F1400224621462846FEF7A5FF204607B030BDCD
:102F240010B50446F0B102681420D2F8943043F08E
:102F34000043C2F8943003F0D1F82368D3F8942006
:102F4400D205FBD5D3F89400D3F89420C0B222F074
:102F54000042C3F8942094F82D3023F07F030343F8
:102F640084F82D3010BD00002DE9F8430E4690463C
:102F74001F460446002800F09D80002900F09A8036
:102F8400FEF7D2FE2068FFF7B9FC3369002184F80C
:102F94004430B3680546A364F36884F82C101B0519
:102FA400E364022384F846303369C4F808805A1E67
:102FB4005342534184F82B30B8F1000F58D0002FFE
:102FC40056D03B68C8F80030A368FA685A601022EB
:102FD400A3689A608022A368D960A3681A614FF439
:102FE4008052A3685961A3689961A368D961A368F1
:102FF4001A62A3685962C0B16FF07F43984214D03B
:10300400012694F82B30002B3DD1002E3DD12046D3
:10301400FFF74EFC304603F061F8322003F05EF80F
:103024002046FFF785FE05462FE001212046FEF7E6
:103034004EFF664BA26920469A424FF000028CBFB5
:1030440001211146FFF7B3FB20469DF82010FEF73F
:1030540045FF94F845302BB1012B10D100212046B7
:10306400FEF7FAFF01212046FEF783FF0026C8E79A
:10307400002DDED06FF07F439D42C1D1D9E7022BF2
:10308400F0D10121EBE7002ECAD025645FFA85F860
:10309400C5F30729C5F307454A4629464046FDF7C7
:1030A400ABFE0746E06038B901462046FEF761FFF3
:1030B400C4E9127701201BE04A4629464046FDF741
:1030C400AFFE4A46294607464046FDF7BDFE4A463E
:1030D400A06329464046FDF766FEE06308B1036835
:1030E400A3630FB1E764676194F82B3013B1002038
:1030F400BDE8F883002E65D12046FFF76EFA6369B8
:10310400B3F1807F30D9324621212046FFF7EBF816
:1031140094F8283053B93146204684F82E60FFF7DE
:1031240036FA07212046FEF77FFFE0E7012120461B
:10313400FFF72DFA94F82E70012FF2D14A46294652
:103144004046FDF777FE38B12046FFF7E9FE3946E1
:103154002046FFF786FEE4E7324631462046FEF776
:10316400CFFF84F82E60DCE794F8283033B9314679
:10317400204684F82E60FFF7FFF9B8E701212046C6
:10318400FFF7FAF994F82E70012F15D14A46294613
:103194004046FDF74FFE38B12046FFF7C1FE3946E1
:1031A4002046FFF75EFEA2E7324631462046FEF790
:1031B400A7FF84F82E609AE7324631462046FEF790
:1031C4009FFF94E784F82E3091E700BF00E1F505F6
:1031D4001FB50190019B114C0BB1206840B9002030
:1031E40001F05EFC0E4BB0FBF3F0019B20609BB141
:1031F400302882BF019B03F1FF330193019B5BB134
:103204000522019B013B4343B3FBF2F30393039B6E
:103214005A1E0392002BFAD104B010BD34C500200D
:1032240040420F0070B50E461546044658B30222BC
:103234000368DA600268936D23F000739365026893
:103244000020D2F8943043F00043C2F89430FFF7E2
:10325400BFFF1420FFF7BCFF2068D0F89430DB05D3
:10326400FBD5D0F89430D0F89420DBB222F00042A1
:10327400C0F894205A1E327001220020043B2B70A7
:103284002368DA6070BD0120FCE7000037B51446FE
:103294000546002843D0002941D0FEF745FD2846C5
:1032A400E1B2FEF71BFE2846FFF732FD1D4B9842A4
:1032B40030D91D4B98422FD91C4B984222D940F249
:1032C400B63440F274431A4A904288BF1C46002226
:1032D40001212846FFF76BFA0021224602232846E3
:1032E4000091FEF78CFE044648B906212846FEF7F5
:1032F4009BFE044618B901212846FEF73AFE2046F3
:1033040003B030BD0B4B4FF43E749842DFD800221B
:103314001146DEE7B424FAE74FF4BE74F7E701245C
:10332400EDE700BF00366E01006CDC0200D8B80582
:10333400000E270700879303F0B50E46174605468F
:1033440087B0D8B1072200240323CDE90322012149
:10335400CDE9014300942346FEF7C9FD0221284626
:10336400FEF75BFD39462846FEF750FD3246C02184
:103374002846FEF777FD204607B0F0BD0120FBE7A5
:103384002DE9FF410C4616461F460546002840D04D
:103394006B46214A1068516803C39068D16803C31F
:1033A4002846E1B2FEF774FE07F110036B4413F8EC
:1033B400088C4FEA48185FFA88F80CB304AB03EBA7
:1033C400560313F8104CA40044F0210464B204F032
:1033D400FD0200212846FFF7AFFF711E284649B2BF
:1033E400FEF7B4FE424604212846FFF7A5FF791EE6
:1033F400284649B2FEF7B3FE002004B0BDE8F081D0
:1034040006F110036B4413F8104CA40044F00104BB
:10341400DCE70120F1E700BFDA640020F0B50E46D6
:103424001746054687B0D8B1072200240223CDE908
:1034340003220121CDE9014300942346FEF757FD01
:1034440004212846FEF7E9FC39462846FEF7DEFC4F
:103454003246C0212846FEF705FD204607B0F0BDE0
:103464000120FBE730B5054685B0A0B10024072153
:10347400022390F82D20CDE902115200CDE900433A
:1034840052B22346FEF77CFC21462846FEF76DFC2B
:10349400204605B030BD0120FBE730B5054685B0B8
:1034A40090B1072100240223CDE90211CDE90043A4
:1034B400234690F92E20FEF78CFC80212846FEF747
:1034C4007CFC204605B030BD0120FBE7F0B5044686
:1034D40087B000283BD090F82B30052B34D0033B29
:1034E400012B2ED8012603270023072576B27FB2AD
:1034F4001A4601212046CDE90355CDE9015700962E
:10350400FEF7F5FC0022FF212046FEF7ABFC94F801
:103514002B30052B0FD1002301211A462046CDE97B
:103524000355CDE901570096FEF7E1FC0022FF2187
:103534002046FEF797FC002002F0D0FD032002F0A5
:10354400CDFD002007B0F0BD03260227CCE7012003
:10355400F8E7000030B5044685B0002871D0002992
:103564006FD0FEF7E1FB2368012120461D68FEF7BA
:10357400B5FC2046FFF7CCFB4008A0610DF10E021C
:1035840020460DF10F01FFF74DFEA3692E4A05F009
:103594000105934236D8202303218DF80E308DF88F
:1035A4000F3008460023B42284F82D1084F82E101E
:1035B400062100902046FEF722FD07212046FEF753
:1035C40033FD01212046FEF771FD9DF80E102046C3
:1035D400FEF77AFD00229DF80F102046FEF780FDCD
:1035E40001212046FEF7C5FC01212046FEF7CFFC51
:1035F4002DB9164B1B6803F00303032B1DD10020C8
:1036040005B030BD124A93420BD902F1B77202F5EC
:10361400585293420BD907211420082340F2325206
:10362400C2E705210E20032340F2B632BCE706218F
:103634001120052340F27442B6E72046FFF746FF07
:10364400DDE70120DCE700BF00366E0100000C500E
:10365400000E2707F0B5044685B0002800F09780D7
:10366400002900F09480FEF75FFB236801212046C7
:103674001E68FEF733FC2046FFF74AFB4508A561A8
:1036840020460DF10E020DF10F01FFF7CBFD414B6A
:10369400414F9D4206F0010650D8202303218DF8A6
:1036A4000E308DF80F30B4220023009120460621FD
:1036B400FEF7A5FC07212046FEF7B6FC01212046B3
:1036C400FEF7F4FC9DF80E102046FEF7FDFC0022E8
:1036D4009DF80F102046FEF703FD01212046FEF75A
:1036E400ADFC01212046FEF744FC01212046FEF7F3
:1036F4004EFC2EB994F82F3013B92046FFF7E6FE9E
:10370400BD423AD9254B9D423CD906220223882545
:103714003B2684F82E30012184F82D202046FEF724
:10372400B7FC324600212046FFF778FE2A460421E2
:103734002046FFF773FE002005B0F0BDBD420DD951
:10374400164B9D420FD903F1B77303F558539D42AD
:103754000ED81421082340F23252A6E70E21032387
:1037640040F2B632A1E71121052340F274429CE7EE
:10377400172109234FF4BE6297E70422002308258A
:103784003326C6E70522002308253726C1E7012092
:10379400D2E700BF00366E01000E270700449508EB
:1037A40070B50E461546044686B0F8B107220323C9
:1037B400CDE901230023CDE9032200930121FEF783
:1037C40096FB31462046FEF73CFB02212046FEF7DD
:1037D40024FB29462046FEF719FB4FF48032602172
:1037E400204606B0BDE87040FEF73CBB06B070BD95
:1037F40038B504460122FFF7ADFEA369154A93428A
:103804001FD9154A93421FD902F5740202F51052CA
:1038140093421CD942F28F7541F28F720F498B4249
:1038240098BF154601212046FEF7BFFB2A462046D5
:103834000021FFF7B5FF01212046FEF729FC0020F7
:1038440038BD4EF28F75EDE74FF28F75EAE740F21F
:103854008F75E7E740FF100500EA3206004495083B
:103864001FB560B10721032390F82D20CDE9001383
:10387400013A0023CDE9021152B2FEF781FA05B0F4
:103884005DF804FB1FB560B10721032390F82E20D7
:10389400CDE90013013A0023CDE9021152B2FEF73B
:1038A40098FA05B05DF804FB2DE9FF470B6904465F
:1038B40080F82B300B69033B032B00F28580DFE893
:1038C40003F0026358792046FFF744FE03220646BC
:1038D40008212046FFF730FD2046FFF719FA4D4B2B
:1038E40098425FD903F1A46303F5834398425BD9FB
:1038F40003F1377303F5D843984257D9464B98429E
:1039040056D9464B984294BF072500254FF000082E
:1039140007274FF0030A4FEA4509434609F1FF32EE
:1039240039462046CDE90277CDE9008AFEF728FA28
:1039340041462046FEF719FA43466A1E3946204698
:10394400CDE90277CDE9008AFEF743FA80212046CB
:10395400FEF733FA2B464A4601212046FFF710FDB5
:103964004FF6FF712046FEF703FC304604B0BDE875
:10397400F0872046FFF76EFE2046FFF773FD2046D2
:10398400FFF78BFD0026EBE72046FFF7E3FD43221C
:10399400064608212046FFF7CFFC01212046FEF70A
:1039A40069FB99E70325B1E70425AFE70525ADE7F2
:1039B4000625ABE72046FFF71BFF2046FFF750FF25
:1039C4002046FFF75FFFDDE7002603254FF00108DF
:1039D40002272046FFF75AFC334606222946204692
:1039E400CDE90067CDE90258FEF7CAF9EB2120467C
:1039F400FEF7BBF93346324629462046CDE9006737
:103A0400CDE90258FEF7E5F938212046FEF7D5F94D
:103A14000646A5E70129DE0701EBC9130184D71780
:103A240030B5044687B0002855D00368002B52D027
:103A3400052926D10121FEF79CFA01212046FEF733
:103A4400A6FA002507230222CDE9033301212046EB
:103A5400CDE9015200951A46FEF749FA04212046A1
:103A6400FEF7DBF929462046FEF7D0F92A46294617
:103A74002046FEF7F7F9642002F030FB002007B07F
:103A840030BD062923D101212046FEF772FA012117
:103A94002046FEF77CFA002507230322CDE90333F1
:103AA40001212046CDE9015200951A46FEF71FFA7E
:103AB40004212046FEF7B1F929462046FEF7A6F96F
:103AC4002A4629462046FEF7CDF99620D4E7033945
:103AD4000129D3D8D7E70120D1E700000000010273
:103AE40003040000000004020601707372616D316A
:103AF40000443A5C696F7470726F6A6563745C4CFD
:103B0400434853505C4F70656E5369466C695C67FB
:103B1400697468756273646B5C5369466C692D5390
:103B2400444B5C76322E355C5369466C692D5344A4
:103B34004B2D56322E355C637573746F6D65725CF4
:103B4400626F617264735C736633326C6235322DFA
:103B54006C63687370692D756C705F626173655C0A
:103B64006273705F696E69742E6300443A5C696FB6
:103B74007470726F6A6563745C4C434853505C4F55
:103B840070656E5369466C695C67697468756273C5
:103B9400646B5C5369466C692D53444B5C76322EDE
:103BA400355C5369466C692D53444B2D56322E3582
:103BB4005C647269766572735C68616C5C626630C1
:103BC4005F68616C5F6770696F2E6300443A5C697B
:103BD4006F7470726F6A6563745C4C434853505CD5
:103BE4004F70656E5369466C695C67697468756289
:103BF40073646B5C5369466C692D53444B5C763239
:103C04002E355C5369466C692D53444B2D56322E28
:103C1400355C647269766572735C68616C5C62665B
:103C2400305F68616C5F6870616F6E2E6300443A48
:103C34005C696F7470726F6A6563745C4C4348535B
:103C4400505C4F70656E5369466C695C6769746853
:103C5400756273646B5C5369466C692D53444B5CA9
:103C640076322E355C5369466C692D53444B2D5680
:103C7400322E355C647269766572735C68616C5C63
:103C84006266305F68616C5F6D70692E6300443AF0
:103C94005C696F7470726F6A6563745C4C434853FB
:103CA400505C4F70656E5369466C695C67697468F3
:103CB400756273646B5C5369466C692D53444B5C49
:103CC40076322E355C5369466C692D53444B2D5620
:103CD400322E355C647269766572735C68616C5C03
:103CE4006266305F68616C5F7263632E6300646652
:103CF400755F6765745F666C6173685F747970651E
:103D04003A2067657420666C617368207479706505
:103D14002062792066616C20706172742074616223
:103D24006C65206661696C65642030782578004490
:103D34004655464C41534800696E76616C6964206F
:103D4400616464722030782578006164647220258F
:103D540078203C206C6F6769635F6164647220251E
:103D64007800646576696365206973204E554C4C10
:103D7400007364696F5F6D75746578006465766956
:103D84006365206F70656E206661696C2025640030
:103D940052545F454F4B203D3D207265740064666C
:103DA400755F666C6173685F6572617365206164D9
:103DB400647220307825782C2073697A65203078F5
:103DC4002578006466755F7061636B65745F657206
:103DD4006173655F666C617368204661696C21205C
:103DE4002564006466755F7061636B65745F6572FA
:103DF4006173655F666C61736820646573742030F9
:103E04007825782C2073697A652025640052545FE4
:103E1400454F4B203D3D2072003000666C61736855
:103E2400310000000649431E13F8012F11F8010B5D
:103E34000AB18242F8D0101A18BF4FF0FF30704711
:103E4400EA640020002310B5084A916C814205D829
:103E5400D46C2144814201D958B210BD0133052BE1
:103E640002F15402F1D14FF0FF30F6E764C10020B3
:103E74000020704703460244934200D1704703F880
:103E8400011BF9E77047704708B5FFF7DBFF431CD8
:103E94001BBF5422024B002002FB003008BD00BFB0
:103EA40064C1002010B50C46C9B12AB9022000F043
:103EB400E7FDB0FBF4F010BD00F03AFD0228024625
:103EC40002D100F06AFDF4E7012802D100F062FD9E
:103ED400EFE7044B0448032A18BF1846E9E70846ED
:103EE400E9E700BF006CDC0200D8B8052DE9F74310
:103EF400994654230024224E054603FB00635C6369
:103F0400CB680F46202B904603D9002003B0BDE8B0
:103F1400F08300B3012828D05421B9F1010F08BF60
:103F24008F2301FB056108BF81F82D30542381F8EC
:103F34002E90682103FB0566124A434601FB0522C5
:103F4400304639460094FFF70FF80028DDD1E4B27B
:103F540001203463DAE701F025F901220146044621
:103F64000420FFF79FFFB061D6E701F021F92A464C
:103F7400014604460620FFF795FFF066CCE700BF34
:103F840064C100205CBF00200020704730B58BB0B6
:103F94006C460E4D542200210D48FFF76BFF0FCDE8
:103FA4000FC42B681022002106A8236003F032F806
:103FB400084B01200593332369468DF81C3005AA6C
:103FC40000230890FFF792FF0BB030BDDC6A00209D
:103FD400B8C100201C100850002070470020704712
:103FE40010B5FFF7D1FF041E18BF0124FFF7CEFF61
:103FF40008B144F00204FFF7EFFF08B144F00404F1
:10400400FFF7ECFF08B144F00804204610BD00009F
:1040140010B586B001F0C6F84022002104461748C6
:10402400FFF728FF142201A8FFF724FF144B019384
:10403400A3F558335B68C3F30223023B042B1AD85D
:10404400104AD35C8B4208BF0323082205934FF028
:104054008053CDE9033201F0A3F80346591E4B42C5
:1040640006484B41224601A980F82F30FFF71CFC7B
:10407400002006B010BD0323E7E700BF1CBF0020EB
:1040840000100450D46A0020B0F1805F10B502D053
:10409400B0F1C04F0CD1074C94F82B0038B1204636
:1040A400FEF736FE94F82B30022B00D0400810BDEA
:1040B4000020FCE71CBF002008B5FFF7B3FE431C3B
:1040C40005D0034890F82B10FFF7AAFC002008BD88
:1040D4001CBF00200303050206000000002004505A
:1040E4000200000000000012200000000000000098
:1040F40010B5064C23780BB1002010BD044B9B6A0D
:1041040003B1984701232370F6E700BF61C700207D
:1041140050221112182208B5034903F029F8002887
:10412400014818BF002008BD5022111213B50B28F6
:1041340007D8DFE800F0170606231C0610062C0635
:10414400062A4FF0FF34694603F022F800B9009CB8
:10415400204602B010BD0F4C0F4B11F0100F08BFDA
:104164001C46F0E70B4C0D4B11F0100FF7E711F064
:10417400100F0B4C08BF4FF09254E4E711F0100FEE
:10418400084C08BF4FF09054DDE7074CDBE74FF0D5
:104194009854D8E70000881200008212000002122E
:1041A40000A0211300A0E11200000220F0B585B0A8
:1041B400064603A802F08CFF00240546039B9C429C
:1041C4001FD205F11C00FFF7A5FF38B387696B6B9D
:1041D4001F44BE4222D3AB6B3B449E421ED890F890
:1041E4003C40022C08D1281D02F07EFF124BC3E98B
:1041F4000007204605B0F0BD012C01D10020F9E7ED
:1042040054B1042001220D4B0D49009602F0C4FF65
:104214003046FCF76DFA20B10120EBE7013440355C
:10422400CCE706200122074B0549009602F0B4FFB3
:104234006FF00200DEE700BF602E0120EE66002072
:104244002F670020386700202DE9F04F85B0054620
:1042540088461646FFF7AAFF01280AD1324641468E
:104264002846FCF7D9FA0446A6420AD06FF00100AA
:1042740008E0022840F08E80B8F1000F00F08A8038
:104284001EB9002005B0BDE8F08F434C6768BD42FD
:104294000AD201220420CDE90057404B404902F0E4
:1042A4007BFF4FF0FF34DFE7D4F80090B9F1000F43
:1042B40006D1012203203B4B394902F06DFFF0E7A0
:1042C40004F1080002F01CFF032805D0002236493F
:1042D40004F1080002F078FF4FF0FF31334802F098
:1042E40037FF0321484602F023FF044638B100900B
:1042F400012204202E4B2A4902F04EFFD1E7ED1B88
:104304004FEA552AC5F30805002D41D0C5F50074C0
:1043140051460123274A484602F016FFA642B346F7
:1043240028BFA346234938BF344629445A46404649
:1043340002F06AFF5D46371B0AF1010AB7F5007FF8
:1043440010DB7B125146484608EB050227F4FF7B3D
:10435400039302F0F9FE039B2BF0010BA7EB0B0771
:104364005C449A44002F0CDD01235146114A48460F
:1043740002F0EAFE08EB04003A460E4902F044FF5C
:104384003C44484602F09CFE084802F039FF6BE7C3
:104394003746D3E7002467E7602E01204A670020F0
:1043A4002F6700206267002071670020682E0120BB
:1043B4007C670020602C01202DE9F74F05460E464E
:1043C4001746FFF7F3FE01280AD13A46314628463C
:1043D400FCF79EFA0446A7420CD06FF001000AE0F5
:1043E400002800F0AD80022840F0AD80002E00F0DF
:1043F400AA801FB9002003B0BDE8F08F534CD4F855
:10440400048045450AD201220620CDE90058504BCC
:10441400504902F0C1FE4FF0FF34DCE7D4F80090BD
:10442400B9F1000F06D1012203204B4B494902F098
:10443400B3FEF0E704F1080002F062FE032805D0A1
:104444000022464904F1080002F0BEFE4FF0FF319D
:10445400434802F07DFE0321484602F069FE28B17C
:1044640040F22A223F49404802F0A6FEA5EB080587
:104474004FEA552AC5F30805002D5ED0BB464FF41C
:1044840000720021394802F093FD51460123374A56
:10449400484602F059FE7B19B3F5007FDFF8CC8063
:1044A40028BFC5F5007B31465A4608EB05002CBFF2
:1044B4005C463C4602F0D0FE424651460123484643
:1044C40002F09AFEA7EB04080AF1010A5E44B8F56B
:1044D400007F10DB4FEA68252B463246514648469A
:1044E40002F08AFE28F4FF7323F00103AA441E4459
:1044F400A8EB03081C44B8F1000F17DD4FF4007259
:1045040000211A4802F054FD01235146174A484637
:1045140002F01AFE42463146144802F09DFE012381
:1045240051464846114A02F067FE4444484602F0A8
:10453400C7FD0B4802F064FE4DE7B8462C46C6E7BB
:104544004FF4006747E7002445E700BF602E0120D1
:104554004A6700202F6700206267002071670020EF
:10456400682E01207870002090670020602C0120C4
:10457400F8B50D4690F8041190F806011F4616464A
:10458400FFF7D4FD431C06D03A4631462844BDE823
:10459400F840FFF711BFF8BD73B506460C46FFF7A8
:1045A40005FE012805461DD050B94FF40033B4FB75
:1045B400F3F203FB12421AB11C44B4FBF3F45C4360
:1045C40001220620CDE90064104B114902F0E4FDFC
:1045D400012D0AD121463046FCF7BCFA58B9002017
:1045E40002B070BD4FF48053E1E715F0FD0FF6D033
:1045F4006FF00200F4E700902A460320054B0449BB
:1046040002F0CAFD6FF00100EAE700BF9E670020D8
:104614002F670020C367002037B590F8041190F885
:1046240006011446FFF782FD0546FFF7BFFD01288A
:104634001AD050B94FF40033B4FBF3F203FB124227
:104644001AB11C44B4FBF3F45C4301220620CDE907
:104654000054074B074902F09FFD2146284603B04A
:10466400BDE83040FFF798BF4FF48053E4E700BF44
:10467400E36700202F6700206466755F7364696FC9
:104684005F77726974650000FFF7C2BCFFF7FCBC7A
:10469400EFF3108072B6704780F31088704740BF04
:1046A400714A1368012B04D04FF0010313606F4A61
:1046B40010606F4A11606F484FF08051016070477D
:1046C400EFF3108272B66848016889B34FF00001B5
:1046D400016066480168B1B1EFF309811EF0100F63
:1046E40008BF21ED108B21E9F00FEFF30B8441F8A3
:1046F400044D4FF000041EF0100F08BF012441F8D0
:10470400044D006801605A490968096808C910C95C
:1047140084F30B88B1E8F00F002B18BFB1EC108BB9
:1047240081F309884EF0100E002B18BF2EF0100EE6
:1047340082F310884EF0040E70474F484FF47F0107
:10474400D0F8002041EA020101607047484908603E
:10475400EFF3148222F0040282F3148843494FF0E9
:104764000000086040494FF00100086042484FF4DF
:104774007F01D0F8002041EA020101603D484FF07A
:10478400805101603D480068006800BF80F30888DC
:1047940061B662B6704700BF20BF7047EFF3088070
:1047A4001EF0040F01D0EFF3098020E9F00FEFF3BE
:1047B4000B8440F8044D40F804ED40F804ED1EF07D
:1047C400040F02D080F3098801E080F3088800B563
:1047D40002F0EAFC5DF804EB4EF0040E7047EFF3D0
:1047E40008801EF0040F01D0EFF3098020E9F00FD8
:1047F400EFF30B8440F8044D40F804ED40F804ED69
:104804001EF0040F02D080F3098801E080F30888C9
:1048140000B502F0EDFC5DF804EB4EF0040E7047B9
:1048240010B4EFF3038410B47C4600B500B54DF822
:1048340004CD0FB4089C2DE9F00FEFF30B8410B4F2
:1048440000B5684602F098FC01BC10BC84F30B88E8
:10485400BDE8F00F0FBC5DF804CB5DF804EB10BCB1
:1048640010BC10BC70470000B8690120C069012069
:10487400BC69012004ED00E020ED00E008ED00E05B
:10488400104A1378FF2B05D10F4B9B68DB4303F0D1
:10489400010313700D4A506B4BB10D4B1B681BB9D0
:1048A4000A23B0FBF3F070470A4B1B88F9E74FF477
:1048B4007A72C0F30E03C00B5343504300EBD33062
:1048C400704700BF96B4002000B00C5000000C509C
:1048D4008C6301208863012007B5134A134902EB56
:1048E400C002D1F89C309278022862F30303C1F825
:1048F4009C300DF1070011D1FBF74CFD10B10B23D7
:104904008DF80730094A9DF80710D2F8943061F306
:104914000303C2F8943003B05DF804FBFBF746FDD3
:104924000028EFD00D23EBE7807B002000A00C5083
:104934004FF0A0430D281A6A0DD842F6F173C34014
:1049440013F0010F0CBF012303238340134023FA08
:1049540000F0C0B270470123F7E70000012803D03C
:1049640002280ED0002070474FF0A043DB6A63B1E9
:1049740013F001000AD00648C3F3830303FB0000CD
:1049840070474FF0A0431B6BF1E71846704700BF18
:1049940000366E010120FFF7E1BF0220FFF7DEBF02
:1049A4000020704738B5244BA1F1B774A4F55854CE
:1049B4009C423FD8012839D0022839D040F26951AD
:1049C4001E4802F029FC1E4B0020D3F894209107C6
:1049D4005EBFD3F8942042F00202C3F89420D3F8C7
:1049E4009420D2075EBFD3F8942042F00102C3F8AA
:1049F4009420144A2B68B4FBF2F423F001032B60D7
:104A04002B6823F4005323F03C0343EA840343F468
:104A1400805343F001032B6001F060FB0A2001F096
:104A24005DFB2B68002BFCDA002038BD064DCAE77D
:104A3400064DC8E70120F8E7002A75158E660020A8
:104A440000B0005000366E012C00005030000050C1
:104A540001460120FFF7A6BF01460220FFF7A2BFCF
:104A64004FF0A042D36A002023F00103D3627047C1
:104A74004FF0A042136B002023F00103136370472F
:104A8400012808D14FF0A0431B6A03F00303032B52
:104A940001D1FFF77FBF0148704700BF006CDC0203
:104AA400021E08BF012210B51046FFF7E9FF012AD4
:104AB40004460AD0022A10D040F23F610A4802F0AC
:104AC400ABFB0123B4FBF3F010BD4FF0A0435B6AD2
:104AD400DBB2012BB8BF0123F4E74FF080435B69DD
:104AE40003F03F03F5E700BF8E6600204FF0A043BC
:104AF40010B50D281B6A18D842F6F172C24012F0A4
:104B0400010F0CBF0122032202FA00F411404FF0FE
:104B1400A04223EA040381400B43136220B901201D
:104B2400FFF7BEFF024B186010BD0122ECE700BF87
:104B340084AC00200028D8BF002008B5CCBFFF23D8
:104B44000346002912DB002A43F4E06340EA012013
:104B54000EDA4FF0A0414A6A22EA030303434B6290
:104B64000120FFF79DFF074B186008BD002A04DBF6
:104B740043F4E04340EA0230EBE7002BF0D0FF239C
:104B8400E7E700BF84AC002070B50C46194D06461B
:104B9400FFF7A2FE2B69FA2023F004032B6101F036
:104BA4009DFA302C0DD800210846FFF79FFF3020D6
:104BB40004220021B0FBF4F0FFF7BCFF00242046E0
:104BC40070BD01F019FA0C4800EBC60043680B48AD
:104BD400EB616043FFF73CFF04460028EFD101215D
:104BE40006220846FFF7A6FF03212046FFF77EFFB3
:104BF400E4E700BF00B00050807B002040420F007B
:104C04002DE9F3411F4C204F04EBC0023B6B92781B
:104C1400054662F317534FEAC0083B630DF10700E2
:104C24000E46FBF7B7FB10B10B238DF807309DF848
:104C3400071014F9352030250A440021FB6C08467E
:104C440062F38503FB64FFF751FF302EB5FBF6F5E5
:104C540004D940F63B210D4802F0DEFA042200217B
:104C64002846FFF767FFFFF7FBFE01F0D1F9444444
:104C7400074B6268DA611A6942F004021A6102B0F1
:104C8400BDE8F081807B002000A00C508E660020DF
:104C940000B0005070B5314E054633780C46012BF8
:104CA40043D9023B012B02D90125284670BD2C4B68
:104CB40053F82120FFF771FE9042F5D8012905D859
:104CC40029462046FFF79CFF002535E000210846D1
:104CD400FFF70CFF2046FFF7FFFDFA2001F0FEF975
:104CE400FFF7BEFE302D0DD801F092F900210846E1
:104CF400FFF7FCFE042200213020B0FBF5F0FFF7A3
:104D040019FFE1E701F078F916486843FFF7A0FEC0
:104D140005460028C8D1012106220846FFF70AFFEC
:104D240003212846FFF7E2FECEE7012909D901460F
:104D34002046FFF729FF05460020347001F0CEF924
:104D4400B3E78B4203D14FF0FF321146D4E79021F1
:104D54000220FFF719FF0028A6D1B1E7E2AC00203A
:104D6400707B002040420F00002808B511DD0029A7
:104D740026DB012800D139B13F2343F4E06340EA44
:104D84000120002A0BDA0EE00146F5E70020034675
:104D9400F3E70029FADA002A0CDB0020034643F487
:104DA400E04340EA02304FF080414A6922EA0303BB
:104DB40003434B610220FFF773FE024B186008BDEA
:104DC4003F23DEE784AC002038B5041E08BF01246D
:104DD40020460D46FFF764FE012C08D0022C0ED0AD
:104DE4000A484FF4CC6102F017FA002006E04FF0B5
:104DF400A0435B6A3DB1C3F30223D84038BD4FF0F2
:104E040080435B69F6E7C3F30233F6E78E6600205E
:104E14004FF080431A6842F480221A601A685203E1
:104E2400FCD51A6822F480221A607047024A13687B
:104E340023F004031360704700000440134A13680E
:104E4400590721D4116800280CBF01234FF0FF3308
:104E540041F0040111604FF0804243F48013136069
:104E640011680029FCD0094A116CC80606D5116CDA
:104E740041F002011164116CC906FCD44FF0804169
:104E84000A6822EA03030B60704700BF0000044075
:104E9400F8B5431C20D010F0E00FC0F38127C0F315
:104EA4000124C6B204D040F28571124802F0B4F96C
:104EB4009FB9A40004F1A045012202FA06F3EFF31E
:104EC400108182F310882A681A432A602A6822EA29
:104ED40003032B6081F31088F8BD012F03D1A400D4
:104EE40004F18045E8E740F29671024802F094F933
:104EF400E2E700BF8E660020F8B5431C14D010F022
:104F0400E00FC0F38126C0F30125C7B204D04FF4EB
:104F1400F6610C4802F080F93EB9AD0005F1A044F9
:104F240010340123BB402360F8BD012E04D1AD0031
:104F340005F180440834F4E740F2C271014802F0FC
:104F44006BF9EEE78E660020F8B5431C14D010F020
:104F5400E00FC0F38126C0F30125C7B204D040F2AC
:104F6400D7710C4802F058F93EB9AD0005F1A044E0
:104F740018340123BB402360F8BD012E04D1AD00D9
:104F840005F180440C34F4E740F2E971014802F081
:104F940043F9EEE78E660020F8B5431C23D010F0E9
:104FA400E00FC0F38126C0F30125C7B204D040F25C
:104FB400FE710E4802F030F946B9AD0005F1A04487
:104FC40008342068F84000F00100F8BD012E04D137
:104FD400AD0005F180440434F3E740F60F010348C3
:104FE40002F01AF9EDE70020EFE700BF8E6600201B
:104FF4002DE9F8432A4B1B69002B4EDA4FF0A045EC
:105004006B6B4FF00B096FF30F036FEA93336FEA87
:1050140083334FF400744FF48078224E6B63736FC4
:10502400214F43F4C0037367736F43F040637367A6
:1050340047F6E073726F03EA44133A40134373670D
:10504400032001F04BF86B6B43F080436B636B6B95
:10505400002BFCDAA96BAA6B6B6B90B223F0804334
:10506400B0EB114F6B634FEA114335BF1B1AC01AE3
:105074004444A4EB080435BF98B280B2A4B2A4B2ED
:105084003F2804D9B9F101094FEA5808D0D1A02822
:1050940094BF00200120BDE8F8830120FBE700BF96
:1050A40000000C5000A00C501F80FFFF0028D6BF4A
:1050B4000020FF230346002910DB090201F4E0610C
:1050C400002A43F4E06340EA010009DA4FF0A0410A
:1050D4004A6C22EA030303434B647047002A09DB4A
:1050E400002A08BF0122120302F4E04243F4E04321
:1050F4001043EBE7002BF0D0FF23E7E74FF0A0438A
:105104005A6C22F480225A645A6C61F311425A6434
:10511400704708B540224FF0A0439A612022012035
:105124009A610021FFF7EAFF02460C20FFF7BEFF59
:1051340000210C20FFF7DAFC02F026F808BD4FF03E
:10514400A042536A60F3154353627047F0280DD8A8
:10515400902807D8302807D8182894BF00210121A7
:10516400FFF798BD0321FBE70221F9E7012070470F
:10517400000000000000000000882A1100882A11A5
:10518400FB06090030031000FD080A00310311007A
:10519400000B0D0013021300020D0F001302130085
:1051A40000207047014B1888704700BF72AC002084
:1051B400014B1888704700BF70AC0020004870474E
:1051C40000E0001238B50020FFF7B2FB044628B90E
:1051D40000F012FF01212046FFF788FC01210C207A
:1051E400FFF784FCFFF7DCFF01285FD0022000F00A
:1051F40093FE0120FFF722FE02F016F800F01EFFD6
:10520400012001F0ADFF0220FBF71AF8012001F0A4
:105214006FFF01F04DFF01F0CBFF18B187213C482F
:1052240001F0FAFF3B4A3C48936843F00103936062
:1052340001F072FF4FF08042136943F010031361D1
:10524400EFF31085012383F31088344C23781BB9C2
:1052540094212F4801F0E0FF2378013BDBB2237057
:1052640023B92F4AD36A23F00103D36285F310884C
:10527400284B9C6814F0010418D101F0E9FF642262
:105284002146C82001F08CFF01F056FF4FF416525E
:10529400B0FBF2F04FF47A72B2FBF0F22149013222
:1052A4000B6F23F47C7343EA02130B670224042577
:1052B400F020FFF74BFF1C48FFF7CEFB002000F067
:1052C4000DFF1A4B1C801A4B1D8000F08EFF2146E7
:1052D4002846FFF70BFC012200201146FAF7D8FFFD
:1052E400FFF7D2F921460620FFF700FCFFF758FF2D
:1052F400012808D10A4A136B23F001031363BDE8A4
:105304003840FEF743BEBDE83840FBF7FBBC00BFA6
:10531400F164002000B00C5000B00040609C0020FC
:1053240000000C5000A00C5000882A1172AC002020
:1053340070AC002008B500F0AFF9BDE808400120CA
:1053440000F088BB704701460122002000F0F2BA49
:10535400002110B50846012200F0ECFA01220021D8
:10536400104600F0E7FA012200211A2000F0E2FAC8
:10537400012200212A2000F0DDFA0123102252210B
:105384000E2001F029F80123102253210F2001F0EF
:1053940023F8102201235421104601F01DF80123A3
:1053A40010225521112001F017F801231022562153
:1053B400122001F011F8012310225721132001F0CB
:1053C4000BF8012310225821142001F005F80123C1
:1053D40010225921152000F0FFFF012310225A2129
:1053E400162000F0F9FF012310225C21182000F0A0
:1053F400F3FF012310225D21192000F0EDFFBDE829
:105404001040012310227C21382000F0E5BF08B5AC
:105414004FF4FA7000F062FE00F0FBF80122002065
:10542400114600F087FA01221146104600F082FA74
:1054340001222620114600F07DFA01221A2011468D
:1054440000F078FA0123002252210E2000F0C4FF5C
:105454000123002253210F2000F0BEFF012300226C
:105464007821342000F0B8FF012300226C21282089
:1054740000F0B2FF012330224FF49D71182000F098
:10548400ABFF0123302240F23B11192000F0A4FFAE
:10549400012330227C21382000F09EFFBDE8084023
:1054A40001222A20114600F045BA08B500F094F80C
:1054B400BDE8084001220920114600F03BBA10B5AE
:1054C40001220021092000F035FA012310225B217A
:1054D400172000F081FF012310227B21372000F0E8
:1054E4007BFF0123102273212F2000F075FFBDE8FC
:1054F4001040012310227721332000F06DBF0146B4
:105504000122092000F016BA10B501230446102226
:105514000921022000F060FF012310220A21032048
:1055240000F05AFF012310220B21042000F054FF45
:10553400012310220C21052000F04EFF012310222C
:105544000D21092000F048FF012310220E210A201A
:1055540000F042FF012310220F210B2000F03CFF3A
:105564001022012311460C2000F036FF01230022F3
:105574001946082000F030FF0123002203210620F1
:1055840000F02AFF022C4FF0010310D0042C21D08C
:10559400102206210D2000F01FFF0121084601F012
:1055A4009FF8BDE810400121072001F099B81022AE
:1055B4000421184600F010FF0123102205210D20BC
:1055C40000F00AFF2146BDE8104001230022072015
:1055D40000F002BF0022DCE710B5012300225B21AA
:1055E400172000F0F9FE012300227B21372000F070
:1055F400F3FE0123002240F239112F2000F0ECFECB
:10560400BDE81040012300224FF49C71332000F0C8
:10561400E3BE08B50022012353210F2000F0DCFE75
:10562400012300224FF4AA710E2000F0D5FE0123BD
:10563400002240F25511102000F0CEFE012300227A
:105644004FF4A771112000F0C7FE0123002240F29D
:105654004F11122000F0C0FE012300224FF4A87164
:10566400132000F0B9FE0123002240F2511114204E
:1056740000F0B2FE012300224FF4A971152000F0BE
:10568400ABFE0123002240F25311162000F0A4FEC9
:10569400BDE80840FFF7A0BF10B5A54B5B68C3F396
:1056A4000223023B042B00F23A81DFE803F0F3F11A
:1056B4004403EF000123002219460A2000F08CFE67
:1056C400012300220321092000F086FE0123102279
:1056D4000921062000F080FE012310220A2108205F
:1056E40000F07AFE012330220B21072000F074FE23
:1056F400012330220C210B2000F06EFE012108460C
:1057040000F0EEFF0121022000F0EAFF0121032056
:1057140000F0E6FF0121042000F0E2FF0121052052
:1057240000F0DEFF01210C2000F0DAFF01210D2042
:1057340000F0D6FF02E00220FFF7E6FE012300227C
:1057440019211E2000F048FE012300221B211A20EB
:1057540000F042FE0123102221211D2000F03CFE16
:105764000123102222211B2000F036FE01233022C7
:1057740023211C2000F030FE0123302224211F208D
:1057840000F02AFE0123102252210E2000F024FEF4
:10579400012310227C21382000F01EFE0123302238
:1057A4004FF49071202000F017FE0123302240F2C4
:1057B4002111212000F010FE012300227421302049
:1057C40000F00AFE012300227D21392000F004FEAE
:1057D400012310227521312000F0FEFD0123102247
:1057E4007621322000F0F8FD0123002240F2491115
:1057F400262000F0F1FD012330224FF4A47127206C
:1058040000F0EAFD012300224FF4A3712A2000F0E6
:10581400E3FD0123002240F247112B2000F0DCFDC0
:10582400012330226D21292000F0D6FD012300221E
:105834004FF49D71182000F0CFFD0123002240F2A7
:105844003B11192000F0C8FD012300226C212820FF
:1058540000F0C2FD0123102272212E2000F0BCFDB5
:10586400012310227821342000F0B6FD0123002208
:105874007E213A2000F0B0FD0123102270212C205B
:1058840000F0AAFDBDE81040FFF7C3BE042053E7B3
:10589400012051E7012310220921022000F09CFD80
:1058A400012310220A21032000F096FD0123102277
:1058B4000B21042000F090FD012310220C2105206F
:1058C40000F08AFD012310220D21062000F084FD42
:1058D400012310220E21072000F07EFD0123102257
:1058E4000F21082000F078FD102201231146092021
:1058F40000F072FD0123102206210A2000F06CFD45
:105904000123002219460B2000F066FD0321012328
:1059140000220C2000F060FD0121084604E7002469
:1059240001340121204600F0DBFE0D2CF8D105E7FF
:1059340000B000507FB50B4B0B4C0546002A18BF36
:105944001C4601230E46CDE901030023204601A98C
:10595400039300F0AFF82046F2B2A9B200F08EF93A
:1059640004B070BD00000A500000084070B596B045
:10597400002869D0012226201146FFF7DBFF01220F
:105984001A201146FFF7D6FF01221E201146FFF709
:10599400D1FF4FF4FA7000F0A1FB1C20FFF7ACFA22
:1059A4002A4B0124059310238DF84D30284B05A86C
:1059B4000693002309940A93089301F0D5FB002869
:1059C4003DD14FF47A76059A0DF1130513688DF8DD
:1059D400130043F004031360492123462246CDE912
:1059E4000146009505A801F0ABFB40BB9DF81330C0
:1059F400224623F008038DF8133049212346CDE9CC
:105A04000146009505A801F0EBFBC0B92346052229
:105A14004921CDE90146009505A801F091FB98B90B
:105A24009DF81330052223F060038DF813304921CB
:105A34002346CDE90146009505A801F0D1FB059A5E
:105A4400136823F00403136016B070BD00D009502E
:105A5400801A060010B50446FFF788FF6CB90748A2
:105A6400FEF72AFB4FF09050FAF744FEFCF720FFB4
:105A7400BDE81040502000F031BB10BDEA640020A6
:105A840008B50A4B984214BF402360238B4206D9C1
:105A940001F01F034909138000EBC11008BD04483D
:105AA40040F25D3101F0B8FB0020F7E700000A5036
:105AB4006B65002037B50C46054618B9B5213B483F
:105AC40001F0AAFB6368012B14D9112B12D0384AB8
