:020000042002D8
:1000000000200420C92002204122022011210220C8
:100010001321022013210220132102201321022088
:10002000000000000000000000000000132102207A
:1000300013210220000000001321022013210220BE
:100040001321022013210220132102201321022058
:100050001321022013210220132102201321022048
:100060001321022013210220132102201321022038
:100070001321022013210220132102201321022028
:100080001321022013210220132102201321022018
:100090001321022013210220132102201321022008
:1000A00013210220132102201321022013210220F8
:1000B00013210220132102201321022013210220E8
:1000C00013210220132102201321022013210220D8
:1000D00013210220132102201321022013210220C8
:1000E00013210220132102201321022013210220B8
:1000F00013210220132102201321022013210220A8
:100100001321022013210220132102201321022097
:100110001321022013210220132102201321022087
:100120001321022013210220132102201321022077
:100130001321022013210220132102201321022067
:100140001321022013210220132102201321022057
:100150001321022013210220132102201321022047
:100160001321022013210220132102201321022037
:100170001321022013210220132102201321022027
:100180001321022013210220132102201321022017
:100190001321022013210220132102201321022007
:1001A00013210220132102201321022013210220F7
:1001B00013210220132102201321022013210220E7
:1001C000132102201321022013210220000000002D
:1001D000000000000000000000000000000000001F
:1001E000000000000000000000000000000000000F
:1001F00000000000000000000000000000000000FF
:0402000000000000FA
:100208000348044B834202D0034B03B1184770479D
:10021800F8490420F849042000000000064B07496B
:10022800C91A891048BF0131491003D0044B0BB1DA
:1002380001481847704700BFF8490420F8490420CE
:100248000000000010B5064C237843B9FFF7D8FF2B
:10025800044B13B10448AFF300800123237010BD91
:10026800F849042000000000BCC4022008B5054B72
:100278001BB105490548AFF30080BDE80840FFF70A
:10028800CDBF00BF00000000FC490420BCC4022010
:10029800002310B5934200DB10BDC4692406FCD5C9
:1002A800CC5C01338462F5E707B501228DF80700BD
:1002B8000DF107010E48FFF7EBFF0E4BD3F888202E
:1002C80002F00302032A02F101010FD0D3F88820BB
:1002D80022F00302C3F88820D3F888200A43C3F821
:1002E80088200CF02FF903B05DF804FBFEE700BF8F
:1002F8000040085000A00C503422014BDA607047CF
:10030800004009507047704710B5012300220321AF
:10031800022004F0A7FC0123002219460A2004F059
:10032800A1FC012310220921082004F09BFC0123D1
:1003380010220A21032004F095FCBDE81040012397
:1003480000220C210B2004F08DBC10B504460121BD
:10035800052004F00BFE0121062004F007FE012110
:10036800072004F003FE0121092004F0FFFD01210C
:100378000C2004F0FBFD01210D2004F0F7FD012104
:1003880054B1084604F0F2FD012330220B21042069
:10039800BDE8104004F066BC042004F0E7FD01232A
:1003A80030220B211846F3E708B500220123032168
:1003B800052004F057FC0123002219460A2004F006
:1003C80051FC0123102209210C2004F04BFC0123CD
:1003D80010220A21032004F045FC012330220B21BE
:1003E800184604F03FFC012330220C21092004F0B8
:1003F80039FC0121022004F0B9FD0121042004F098
:10040800B5FD0121062004F0B1FD0121072004F00B
:10041800ADFD0121082004F0A9FD01210B2004F005
:10042800A5FDBDE8084001210D2004F09FBD10B5D1
:100438000123002219211E2004F014FC01230022AC
:100448001B211A2004F00EFC0123102221211D205B
:1004580004F008FC0123102222211B2004F002FCD6
:100468000123302223211C2004F0FCFBBDE81040AE
:100478000123302224211F2004F0F4BB10B50123EE
:1004880030224FF4DA711D2004F0ECFB142001F047
:10049800B0FE012300224FF4D9711C2004F0E2FBC6
:1004A8000123302240F2B5111E2004F0DBFB0123AA
:1004B80030224FF4DB711F2004F0D4FB01233022DB
:1004C80040F2B7111A2004F0CDFBBDE8104001231B
:1004D80030224FF4DC711B2004F0C4BB10B50F4B65
:1004E8000F495B680A68C3F3022322F00802072B4E
:1004F8000A600CD1002401340121204604F036FDA5
:100508000D2CF8D10020BDE810400BF0DBBF1BB16B
:10051800012BF7D1022010BD0120FCE700B00050EC
:1005280000A00C50704708B51022012309210220B1
:1005380004F098FB012310220A21032004F092FB07
:10054800012310220B21042004F08CFB012310222C
:100558000C21052004F086FB012310220D21062022
:1005680004F080FB012310220E21072004F07AFBFF
:10057800012310220F21082004F074FB102201230C
:100588001146092004F06EFB0123102206210A20DF
:1005980004F068FB0123002219460B2004F062FBDB
:1005A8000123002203210C2004F05CFB01210846F2
:1005B80004F0DCFCBDE8084001210D2004F0D6BCA5
:1005C80010B50123044610220921022004F04AFB39
:1005D800012310220A21032004F044FB01231022E6
:1005E8000B21042004F03EFB012310220C210520DE
:1005F80004F038FB012310220D21092004F032FBFE
:10060800012310220E210A2004F02CFB01231022C2
:100618000F210B2004F026FB1022012311460C2089
:1006280004F020FB012300221946082004F01AFBDD
:10063800012300220321062004F014FB022C13D00E
:10064800042C25D0012C2CD10621234610220D2064
:1006580004F008FB2146204604F088FCBDE8104061
:100668000121072004F082BC01231022042118462E
:1006780004F0F8FA0123102205210D2004F0F2FA03
:100688002146BDE8104001230022072004F0EABA01
:100698000621012300220D2004F0E4FA0121084676
:1006A800DAE710BD08B50123002219460A2004F034
:1006B800D9FA012300220321092004F0D3FA0123E7
:1006C80010220921062004F0CDFA012310220A2164
:1006D800082004F0C7FA012330220B21072004F078
:1006E800C1FA012330220C210B2004F0BBFA0121AE
:1006F800084604F03BFC0121022004F037FC0121EC
:10070800032004F033FC0121042004F02FFC012114
:10071800052004F02BFC01210C2004F027FCBDE887
:10072800084001210D2004F021BC0221042004F01E
:100738003DBD00002DE9F04100248AB00546402265
:10074800214663480AF082F9624BA81E05934FF0D0
:1007580080530793032306940993042804D8DFE8F9
:1007680000F06462045D6000FEE70523099304233A
:10077800099D0893032D62D101F042FC05A90246A8
:10078800534804F005F82A460821514803F0F2FEC0
:100798004F4803F0E5FB504B984248D903F1A46356
:1007A80003F58343984244D903F1377303F5D843DB
:1007B800984240D9494B98423FD9494B984298BFF3
:1007C8000724002607254FF003086700FFB27A1EAA
:1007D800334652B229463E48CDE90255CDE9006874
:1007E80002F076FA31463A4802F067FA621E33465A
:1007F80052B229463648CDE90255CDE9006802F0E3
:1008080090FA8021324802F080FA23463A460121C4
:100818002F4803F0D3FE0AB0BDE8F0810223099304
:10082800A6E7062309930823A2E71023A0E72C468E
:10083800C7E70424C5E70524C3E70624C1E7052D57
:100848000DD101F0DDFB05A90246214804F020F88E
:100858001F4803F025FF1E4803F03DFFDBE7062D88
:100868000DD101F0CDFB05A90246194804F0DEF8C8
:10087800174804F013F9164804F022F9CBE701F001
:10088800BFFB0025032401270226024605A91048BC
:1008980003F01AFE2B4606222146CDE90247CDE990
:1008A80000560B4802F014FAEB21094802F005FA49
:1008B80021462B462A46CDE90247CDE90056044891
:1008C80002F02FFA3821024802F01FFAA3E700BF0E
:1008D800144A0420001004500129DE0701EBC91353
:1008E8000184D71710B5154B5C68C4F30224A31E06
:1008F800042B21D8DFE803F01D1B15031900FFF7AF
:10090800D1FE0122002011460BF0E2FD0120FFF785
:100918000CFF022001F080FB2046BDE81040FFF7E5
:1009280009BF0220FFF74CFEEBE70420FAE701209D
:10093800F8E7FFF7F8FDE4E710BD00BF00B000508E
:10094800154B70B503F15406B0F1905F38BF1E46E1
:1009580033690C46834201D9012070BD72691A447B
:100968008242F9D3C01AC0F30B037BB9C1F30B035E
:100978007BB94518291B0CB92046EEE7304603F031
:10098800A4FA0028E8D1A4F58054F3E74FF0FF302B
:10099800E3E76FF00100E0E7746F04202DE9F84306
:1009A800204B0F4603F15408B0F1905F38BF9846CA
:1009B800D8F810501646854202D90020BDE8F883C1
:1009C800D8F814202A448242F7D3451B15F0FF04B7
:1009D80012D0C4F58074B44228BF34460A46234670
:1009E8002946404603F08CF98442E6D12544274441
:1009F800341B1CB93046E1E73446FAE7B4F5807F8A
:100A0800A14628BF4FF480793A464B4629464046CE
:100A180003F076F98145D0D14D444F44A4EB090445
:100A2800E7E700BF746F04200B4610B51446014673
:100A380018460AF025F8204610BD00002DE9F04FB1
:100A480000260F461546B046194BDFF868A01B680C
:100A5800DFF864B01B690446834285B098BFC41AA6
:100A68001DB9304605B0BDE8F08FDAF80010DBF8A4
:100A78000000A942B0FBF1FC894601F1FF3228BF12
:100A8800A946B4FBF1F10CF1FF3CB4FBF0F0CDE961
:100A98000188CDF80090BB1922400CEA010104F04E
:100AA800DBFF4845DDD106442D1A0444D8E700BFD2
:100AB8005C6D0420042C0420002C04202DE9F04156
:100AC8001646144600F11E458F18B4F5005FA7EBD3
:100AD800040821D224F4FF7727F00107B7F5806FC7
:100AE80009D33A464146284601F002F987421CD10B
:100AF800E41B3D44B8446CB14FF4007228460F49DA
:100B080001F07AF8B0F5007F0FD1224640460B4934
:100B180009F0B6FF304609E04FF400524146284636
:100B280001F0E6F8B0F5005F02D00020BDE8F081E2
:100B3800A4F5005405F50055C7E700BF586B04201D
:100B48002DE9F84300F11E460D4614461746B046F7
:100B580002EB0109B7F5007FA9EB070118D2C4F32E
:100B6800080797B124F4FF7020F001004FF40072D9
:100B78000C49304400F05AFE24F4FF7020F00100C4
:100B88003A460849284409F07BFF2046BDE8F88327
:100B980040464FF4007200F049FEA7F5007708F5CB
:100BA8000078D7E7586B04202DE9F04715460E4624
:100BB8002A491A46DDE9083C0F68E9188F42DDF832
:100BC80028E000D2FEE7264907F18009B9F1000FB5
:100BD800096817DD234C646E04F01F08C84424F02C
:100BE8001F04BFF34F8FDFF884A0A044CAF85C420B
:100BF8002034A8EB0409B9F1000FF7DCBFF34F8FDD
:100C0800BFF36F8FC4071DD5164C94F88380B8F1D5
:100C1800000F17D0646E04F5805804F01F0404F523
:100C2800086428F01F08BFF34F8FDFF84090203C7E
:100C3800002CC9F85C8208F12008F8DCBFF34F8F5C
:100C4800BFF36F8F07FB0655CDE908CE01FB0051B6
:100C5800BDE8F047044802F071BF00BF042C04202F
:100C6800002C0420746F0420C86F042000ED00E0FD
:100C780010B41E4B014618688030002814DD1C4B48
:100C88005B6E03F01F02024423F01F03BFF34F8F74
:100C9800184C1A44C4F85C322033D01A0028F9DC06
:100CA800BFF34F8FBFF36F8FCB071AD5104B93F855
:100CB8008320B2B15B6E03F5805203F01F0303F586
:100CC800086322F01F02BFF34F8F0A48203B002B16
:100CD800C0F85C2202F12002F8DCBFF34F8FBFF3AB
:100CE8006F8F05485DF8044B02F0E9BF042C04201F
:100CF800746F042000ED00E0C86F04202DE9F04770
:100D08008CB001F0A5FF0121002004F04FFA012169
:100D18000C2004F04BFA012004F046F9A34F902070
:100D280004F0C5FB002001F064FA3B68A04C013BCD
:100D3800052B00F22A81DFE813F0060006007D008B
:100D48007D00050119019B4804F0F8F99A4E062028
:100D580001F062F902AD0221042004F027FA0FCE57
:100D68000FC5336810222B60002108A809F06EFE19
:100D7800924B934D079332238DF82430012385F845
:100D88004530002303933B68012B4ED1FFF7BCFA93
:100D980001F036F98B4A009007AB894802A903F0A5
:100DA80065F93E68012E0DD1286C874BC31A58424D
:100DB8005841FFF7CAFA3146814802F0B4FB0223D2
:100DC80085F82830814B824A2360824B1A60824B17
:100DD800824A1A60824BAA6C1A60824B1D600525F4
:100DE800DFF804827E4EDFF83892236842F610421C
:100DF8007D4930689847D8F800304B4540F0C980A5
:100E08003B68042B40F08E80D8F8A4305A1E033279
:100E180000F28880754A7449136042F610422368CC
:100E280030680CB0BDE8F0471847FFF7BDFA022359
:100E38000393ADE75F4804F081F96D4E062001F099
:100E4800F1F802AD0221062004F0B0F90FCE0FC56B
:100E5800D7F800803368B8F1030A2B604FF010020E
:100E68004FF0000108A818BF4FF0010A09F0EEFD85
:100E7800604B0126079333230A968DF82430FFF739
:100E8800D6FA0223B8F1030F4D4D03934DD05A4BB8
:100E980006962360049B03F1A0430493574B2B67EA
:100EA8004FF00109002001F0A4F985F8999085F820
:100EB80098A001F0ABF8524A009007AB514802A93C
:100EC80003F0D4F84F4E98BBB8F1030F33D0304637
:100ED80002F029FEDFF814A1DFF84881CAF8000003
:100EE800304602F0E0FE4946C8F80000304685F872
:100EF800829002F0D8FCDAF8000005F095F8D8F8EE
:100F0800000005F097F84049D5F8A00004F02EFF3E
:100F1800334BD5F89C201A60324B1E602368002B97
:100F28007FF45DAF0CB0BDE8F087284B2360B7E7CE
:100F3800B8F1030FECD1274B254A1A60264B274AF4
:100F48001A60E5E71B4804F0F9F8FFF797FA00F094
:100F580057FD012801D0FFF7A7F92C4B2C4A236035
:100F68001F4B1A6000221F4B1A6038E7114804F023
:100F7800E5F8FFF783FA00F033FB264B186010B151
:100F8800C0B2FFF791F9244BE8E75320FFF78CF93B
:100F9800C4E7224801F02DF9013D7FF426AF432034
:100FA8000CB0BDE8F047FFF77FB900BFC89F042029
:100FB800686D042000882A1158AB022008100850D8
:100FC800746F04206C6D042085601700310A0220BC
:100FD800A5090220646D0420606D042049090220DF
:100FE800586D04205C6D0420B8730420042C042080
:100FF8006CAB02201C100850450A0220D85A042065
:10100800D46D0420C86F0420584A0420C50A022061
:1010180000100062544A0420490B022040420F008D
:1010280046434553002C0420032808B50CD8000279
:101038002022074900F47F4001F084FD00280CBFFE
:101048006FF00100002008BD4FF0FF30FBE700BF44
:101058003873042013B501380C4603281ED8DFE87E
:1010680000F0020C09101022002002B0BDE8104068
:1010780001F068BD08228020F7E720224FF4407075
:10108800F3E70422C0200DEB020101F05BFD042808
:1010980004D10120019B237002B010BD0020FBE7A2
:1010A80038B505460F4C1022E3680F4943F0010399
:1010B800E3600120FFF7CEFF202200210B4809F052
:1010C800C5FC02232021084A002001F00BF9202347
:1010D80029460020054A01F04BF9E36823F0010393
:1010E800E36038BD00B00050687304201873042012
:1010F80038B504460D46102208490120FFF7AAFF1B
:1011080002232021054A002001F0ECF820232A467A
:101118002146002001F02CF9002038BD6873042016
:1011280038B50A4D0446082229460320FFF792FFE6
:101138000023C5E902330F2324092CB1EC54013BE9
:101148000B2B4FEA1424F8D1004838BD58730420FB
:101158002DE9F04780468946924600214FF40072F7
:1011680014481E46089F002409F070FCA64202D8C5
:101178002046BDE8F087351BB5F5007F28BF4FF442
:10118800007509EB04012A460A4809F079FCE019C0
:10119800FFF7C6FF012302462021404601F0A2F8CE
:1011A8000AEB04022B460020024901F0E1F82C4426
:1011B800DCE700BF1871042010B50446084B4FF453
:1011C80040511B684FF090509847064B2146BDE8A8
:1011D800104042F610424FF090501B68184700BF6D
:1011E800606D0420686D0420054B82B09B6B0193F1
:1011F800019B13B1019B02B0184702B0704700BFB2
:1012080000000C50094B02461B6863B193F82B0091
:1012180048B91969914207D85B691944914294BF4A
:101228000020012070470020704700BF5C6D04203B
:101238002DE9F04F5E4F841E07EB001307EB4020AB
:10124800D3F80480DD68B0F8063C85B0DB0740F1D0
:1012580095804FF4937107F5827000F06AFE10B123
:10126800012000F0B3FE072C00F393800320FFF762
:10127800DBFE624202F0030204F0030358BF53424C
:10128800022B00F286802846FFF7BCFF41F20803D4
:1012980082464FEA4429DFF82CC107EB09061E44B1
:1012A8000FCEACE80F0096E80F008CE80F00BAF1FB
:1012B800000F4BD004F10806ACF110007602FFF7DE
:1012C800EFFEBA59DFF8F0A02A440020DAF800B09F
:1012D8000392FFF725FF29460346039A584602F072
:1012E80090FA2946DAF80000BA59A8EB050302F08B
:1012F80077FA0121DAF8000002F09BFA04F10803FA
:1013080009F581505B0208302A46FB5829493844C0
:1013180000F027FE10B1022000F058FED5F800D0EA
:10132800D5F804F02846FFF76DFF002834D022488E
:101338000834640229463A590068A8EB050302F00C
:101348004FFAD5F800D0D5F804F022E0ACF110003F
:1013580020221A49FFF7CCFE04F10806184B760242
:101368002946BA5940461B689847CDF800A02A4636
:101378002946BB591148FFF7EBFEBFE7072C08DCED
:10138800624202F0030204F0030358BF5342022BE7
:10139800C8D905B0BDE8F08FA845D2D0084B0834AD
:1013A8006402294640461B683A599847C9E700BF76
:1013B800B8730420BC7404205C6D04207873042086
:1013C800686D0420987304202DE9F04F524EDFF821
:1013D80058A1336885B0534550D108220023DFF85F
:1013E8004CB10DEB0201CDE902334C48DBF800307B
:1013F800984708200BF066F8054605200BF062F8C0
:10140800DFF82C914649D9F80040DFF8288142F6E8
:101418001042DBF800300746C8F80010204606F5F1
:1014280000569847D6F808BC04F5A05293454ED10B
:10143800EBB2042B25D0062B39D0012B42D1052045
:101448000BF040F8022806D0029B534506D19DF8C0
:101458000D307F2B02D1334BC6F8083CD6F8083C38
:101468005A1C0BD0D9F800401C1BA4F58054640A00
:101478000234FFF737FA2046FFF7DAFE05B0BDE879
:10148800F08F082004F5E0540621C6F8084C0BF04C
:1014980013F8D8F8000000F50053C3F8084C1FB142
:1014A80000F58053C3F8007CFFF786FEC7E70121EB
:1014B80008200BF001F8D8F8000000F50053C3F835
:1014C80008BCF1E7012108200AF0F6FFB7E704F5A8
:1014D800E054A345B3D1EBB2032B05D0052B18D0AC
:1014E800022BACD00221EEE708200521C6F8082C13
:1014F80001920AF0E1FFD8F80000019A00F50053C4
:10150800C3F8082C002FCFD000F58053C3F800741F
:10151800CAE70221CCE700BFB87304200000881294
:10152800D09F04200010001246434553686D0420E4
:10153800586D0420CC9F042008B50E4B5B68DBB2C5
:10154800062B0AD80C4A936A23F07F0343F006035C
:101558009362536843F080035360002000F049FE13
:10156800064B074A00205A60FFF75EFDBDE80840B9
:10157800FFF73ABE00B0005000A00C5000C0005069
:101588008FD00200144C08B5002000F032FE6368CA
:10159800124DDBB2062B0FD9FEF7C4FFFEF7ACFEE7
:1015A800FEF79CFF2860E36823F00103E360FFF780
:1015B800A5FBFFF709FFFEE7FEF790FF2860FEF79F
:1015C800B1FFFEF799FEE36823F00103E360FFF73C
:1015D80095FBFFF7F9FEEEE700B00050C89F042026
:1015E80070B58CB000F068F98D4C8E4B00252363E4
:1015F800236B4FF4FA7043F0020323634FF0007338
:10160800E562236200F0F5FD2946284600F086F9D8
:101618000123E365E36D9D07FCD5E36B43F02003ED
:10162800E3638149012007AD00F078F906AB05AA0C
:1016380004A90DF10F00009500F0AEF9142000F098
:10164800D8FD049B002BECDA142000F0D2FD002119
:10165800022000F063F9012800F0818002287ED082
:1016680008AB0AAA0BA900930DF10F0009AB00F013
:1016780093F9142000F0BDFD4FF48031032000F0F1
:101688004DF9012800F0AB80022800F0AA8006ABD3
:10169800009505AA04A90DF10F0000F07DF99DF849
:1016A8000F30032B40F09F805D4C1420E36B23F038
:1016B8002003E36300F09DFD4FF48031092000F022
:1016C8002DF9012800F09180022800F0908005AAE9
:1016D80004A906AB0DF10F00009500F05DF94FF479
:1016E800B8532363236B142043F0020323634FF0A2
:1016F800007323620223E36300F07BFD4FF4803123
:10170800072000F00BF9012873D0022873D006AB2C
:10171800009505AA04A90DF10F0000F03DF99DF808
:101728000F30072B69D14FF0FF33012100202360D0
:1017380000F042F90021082000F0F0F801285ED0FE
:1017480002285ED006AB009505AA04A90DF10F008A
:1017580000F022F99DF80F30082B02D00D200CB0B4
:1017680070BD2023E36200F037F923681806F5D42A
:101778002368590647D48026013ED4F80032FBD1AD
:101788000121304600F018F9142000F032FD4FF026
:10179800FF3331461120236000F0C0F8012834D00F
:1017A800022834D006AB009505AA04A90DF10F0054
:1017B80000F0F2F89DF80F30112B2AD12023E362B4
:1017C80000F00AF923681A0625D423685B0624D496
:1017D8008020134B0138D3F80022FBD1BFE7032048
:1017E800BDE70420BBE70520B9E70620B7E70720D7
:1017F800B5E70820B3E70920B1E70A20AFE70B20D7
:10180800ADE70C20ABE70E20A9E71120A7E71220CF
:10181800A5E71320A3E71420A1E715209FE700BF41
:101828000050045000670100800000402DE9F0419D
:1018380007464FF0FF3888B000200D461D4E0121A5
:10184800144600F0B9F8142000F0D3FC1120C6F8B3
:101858000080790A00F062F84044C0B2012803D839
:10186800002008B0BDE8F08107AB009305AA06ABDD
:1018780004A90DF10F0000F08FF89DF80F30112B1F
:10188800EED12023C6F80080F36200F0A5F8336893
:101898001A06E5D433685B06E2D424F003032B442C
:1018A8009D4201D12046DCE7D6F8002245F8042BFA
:1018B800F6E700BF0050045010B54FF0A044E368AD
:1018C800642023F01003E36000F093FCE368074A08
:1018D80043F01003E360136943F0020313614FF40C
:1018E8008072034B1A630022DA6310BD00B0005007
:1018F80000500450084B1A6812F00A0FFBD002225D
:101908001A601A6812075FBF1868C0F380004000A9
:10191800C0B248BF01207047005004500E4B0F283A
:1019280099604FEA804313D8012248F2110182409E
:101938000A4205D140F204610A4209D043F4403317
:10194800054A43F4807343F001035360FFF7D2BFA5
:1019580043F48033F4E700BF00500450F8B505465F
:101968000F4637201104FFF7D9FF044668B9084B22
:10197800084E43EA8543B7607360FFF7BBFF022850
:1019880004D1292D02D1042333602046F8BD00BFBD
:10199800010101000050045030B5064CE56805709F
:1019A8002069086061691160A2691A60E269039B95
:1019B8001A6030BD005004504FF0FF33044A03EB67
:1019C80041239362034B43EAC0235362704700BF2D
:1019D800005004500103FF01084B1A6812F0E00F91
:1019E800FBD020221A601A6812065FBF1868C0F37D
:1019F80080104000C0B248BF01207047005004501A
:101A0800F0B58DB0FFF758FF764C774B0025236370
:101A1800236B4FF4FA7043F0020323634FF48013EF
:101A2800E562236200F0E5FB29462846FFF776FFCA
:101A38000123E365E36D9B07FCD5142000F0D9FB77
:101A48004FF4D5710820FFF769FF0138C0B20128AB
:101A580002D838200DB0F0BD07AC06AB009405AA3B
:101A680004A90DF10F00FFF797FF9DF80F30082B21
:101A7800EFD1049BB3F5D57FEBD1142000F0B9FB6F
:101A8800002229205949FFF769FF012800F0A280A8
:101A980006AB009405AA04A90DF10F00FFF77CFF1F
:101AA800049B002B03DB022000F0A3FBE5E71420D6
:101AB80000F09FFB00210220FFF730FF0138C0B281
:101AC800012840F2898008AB0AAA0BA900930DF1FE
:101AD8000F0009ABFFF760FF142000F08AFB00211C
:101AE8000320FFF71BFF0138C0B2012801D83320BB
:101AF800B0E706AB009405AA04A90DF10F00FFF7A3
:101B08004BFF9DF80F30032BF1D1049D14202E0CB0
:101B1800360400F06EFB31460920FFF7FFFE01385E
:101B2800C0B201285AD906AB05AA04A90DF10F00C5
:101B38000094FFF731FFDDE90420069F07993B0E6B
:101B480043EA0123010E41EA07210591110E04938E
:101B580041EA002112029B0F069107921DD0012B2A
:101B68003ED10023224A142013704FF400721D4BFB
:101B78001A631A6B42F002021A631E4A1A620022A2
:101B8800DA6300F036FB31460720FFF7C7FE01385D
:101B9800C0B2012803D837205CE70123E2E706AB8F
:101BA800009405AA04A90DF10F00FFF7F5FE9DF8B2
:101BB8000F30072BEFD1142000F01BFB0221062069
:101BC8002A0CFFF7CBFE0138C0B201288CBF0120D8
:101BD80036203FE734203DE732203BE7392039E71C
:101BE800542037E700500450006701000080FF4090
:101BF800082C0420009F240070B5B1F1C04F0546A1
:101C0800144688B014D3002A12DD01F01F022244C2
:101C180021F01F03BFF34F8F304E1A44C6F85C32D1
:101C28002033D01A0028F9DCBFF34F8FBFF36F8F32
:101C380000222B4B1A632B4A9A638022D9635A637A
:101C4800D3F8A820012122F47C1242F46412C3F8CC
:101C5800A8204FF428621A631A6B084622F0200263
:101C68001A631A6B42F001021A63FFF7A5FE1420EB
:101C780000F0BFFA1C4B1B7803B96D0A29461120E6
:101C8800FFF74CFE0138C0B2012802D8002008B086
:101C980070BD07AB009305AA06AB04A90DF10F00B0
:101CA800FFF77AFE9DF80F30112BEFD14FF0FF337D
:101CB8000E4D2B602023EB62FFF78EFE2B681A0671
:101CC800E4D42B685B06E1D4054B5A6B002AFCD19F
:101CD8001A6B204622F001021A63D8E700ED00E0F3
:101CE8000010085000520450082C042000500450E2
:101CF8002DE9F04F80460E46154689B0002A59D086
:101D0800C2F30803002B55D191464D4CDFF840B182
:101D1800D4F8A83023F47C1343F46413C4F8A8302F
:101D2800B9F5003F2CBFFF214FEA5921B6F1C04F4A
:101D38004FEA412712D38FB106F01F023A4426F02A
:101D48001F03BFF34F8F1A44CBF85C322033D01AED
:101D58000028F9DCBFF34F8FBFF36F8F236B4FF071
:101D6800FF3223F001032363364B0120A363BB0832
:101D7800E66363634FF428632363236BC9B223F0DC
:101D880020032363304B1A60FFF716FE236B43F0E2
:101D9800010323632D4B1B7883B94FEA5821122086
:101DA800FFF7BCFD013801280AD8254A136B23F038
:101DB80001031363002009B0BDE8F08F4146EEE748
:101DC80007AB009305AA06AB04A90DF10F00FFF7B6
:101DD800E3FD9DF80F30122BE7D12022DFF868A031
:101DE800CAF82C20FFF7F8FDDAF8003013F0C00F1E
:101DF80008D0236B002123F0010323630C20FFF795
:101E08008DFDD7E7616B0029FCD1236B0C2023F0F3
:101E180001032363FFF782FD01380128CAD907AB04
:101E2800009305AA06AB04A90DF10F00FFF7B4FD56
:101E3800B9EB07093E44B8447FF472AF2846BAE7C5
:101E4800001008500052045000500450082C042080
:101E580000ED00E02DE9F0470C461546994680460E
:101E680000283FD000293DD0002A3BD0032B39D889
:101E780000F0D4FA00224946104600F0D7FAB4F52B
:101E8800807F29D90026374606F58076A64234BFDA
:101E98004FF0000A4FF0010A4FB100F0BFFAA64216
:101EA8002CBF3A4600224946284600F0BFFAA6420F
:101EB80034BF4FF48071E11B524608EB070000F075
:101EC8008FFA284600F0E0FAA642DCD3284600F054
:101ED800DBFA0020BDE8F08701222146404600F0E9
:101EE8007FFAF3E74FF0FF30F4E7F0B5054689B025
:101EF8000F4614460021202268461E4608F0A6FD1B
:101F08001DB94FF0FF3009B0F0BD002CF9D0022305
:101F18006A4639462846FFF79DFF0028F1D1324628
:101F28002146684608F082FD003818BF012040426B
:101F3800E9E7002337B504460D4608226946032021
:101F4800CDE90033FFF786F80828034606D16A462C
:101F580029462046FFF7C9FF03B030BD4FF0FF30D8
:101F6800FAE7F0B51F4616468DB0202204460D4606
:101F780004A8002108F06AFD02233946304604AA65
:101F8800FFF768FF18B14FF0FF300DB0F0BD02A8A1
:101F980007F0D0FA29464FF4937202A807F0D6FB4F
:101FA80001460028EFD10622039807F076FC4FF48B
:101FB80080730621CDE9004304AA202302A807F074
:101FC800EDFA003818BF01204042DEE7012808B5C5
:101FD80004D0022809D01322054901E01722054937
:101FE8000548FEF755F9FEE708BD19220349F7E74A
:101FF800B2AB022080AB02200040085098AB022010
:10200800014B1888704700BF0C2C0420014B18881E
:10201800704700BF0A2C0420014B1880704700BF8E
:102028000C2C0420014B1880704700BF0A2C042098
:102038007047704708B5104A104B9A60D3F888204B
:1020480042F03F02C3F88820D3F8882042F4700297
:10205800C3F88820FFF770FAFEF754F9084B1B689D
:10206800DB0701D4FFF7E4FFFEF74DF9FFF7E1FFC7
:10207800044B054A1A6008BD0000022000ED00E08C
:1020880000B00050102C042040787D0110B5084B9A
:10209800D3F8944020440E2838BF0E200F2828BFBC
:1020A8000F20C3F89400142000F0A3F8204610BDB8
:1020B80000A00C50014BC3F89400704700A00C50CE
:1020C800DFF848D0124880F30A88FFF7B3FF114CB5
:1020D800114DAC4209DA21686268A368043BA2BFCB
:1020E800C858D050FAE70C34F3E70C4B0C4CA34219
:1020F80008DA19685A680020043AA4BF8850FBE738
:102108000833F4E7FFF73EFAFEE7FEE70020042075
:10211800000004201CC6022028C6022028C602206F
:1021280030C6022000207047014B1868704700BF76
:10213800E4CB042013B50190019B1A4C33B12368FA
:1021480023B1019BB3F1807F0CD9FEE7002003F097
:1021580011F8154BB0FBF3F0019B2060002BF0D178
:1021680002B010BD019B002BFAD0104A136813F07F
:1021780001030DD10E48D0F8FC1041F08071C0F871
:10218800FC105360136843F4003343F001031360F9
:10219800019B22680549534348684A68121A9A42C3
:1021A800FBD3DDE7E0CB042040420F00001000E045
:1021B80000ED00E037B501904FF0E0204FF47A725F
:1021C8004469019B6343B3FBF2F3019300238169E4
:1021D80082698A42FCD025BFA51A5B195B185B1877
:1021E800019938BF9B1A994201D803B030BD1146F6
:1021F800EEE7034670B5B8B142F210754FF0E0262D
:10220800AB4284BFA3F51C5442F21073326998BFE5
:102218000024184688BF103CD30708D5FFF7CAFF2B
:102228002346002CECD101E0FFF784FF70BDFFF7D7
:1022380081FFF5E77047704708B5054B1B6A5B00DF
:1022480002D5FFF7F8FF08BDFFF7F4FFFBE700BF73
:1022580000B0005010B501F17044B4F1805F0E4C2D
:1022680038BF01F1A041616102F17041B1F1805FB5
:1022780003F10F034FEA231338BF02F1A042A26112
:10228800E361236908B143EAC013034A2361136871
:1022980043F00103136010BD00D0005000F17043FB
:1022A80010B5B3F1805F094C38BF00F1A0406065FC
:1022B800A1651AB1236D43F008032365216D044815
:1022C80000F098FC0423236010BD00BF00D000502C
:1022D800C6AB022002220020014B1A60186070472A
:1022E80000D00050F8B504460C201E460D4617468F
:1022F80003F0BEF81C4B5B68DB0701D5FFF7EAFF6C
:10230800B4FA84F1182D4FEA51114FEA41111BD04C
:10231800202D1BD0102D24D1002364B12046134A50
:1023280025F003052544121B141850F804CB8542E8
:10233800C4F800C0F8D1314341EAC3010A4B19611E
:1023480006B12FB90020F8BD0123E6E70223E4E730
:102358003A681A627A685A62BA689A62FA68DA62FD
:10236800F0E74FF0FF30EEE700D0005030D00050DB
:10237800F8B50827174E14461D46C6F88870BFF3EF
:102388004F8FBFF36F8F0027134EF760FFF762FF81
:102398007368DB07FCD4B06800F00600003818BF8B
:1023A8000120B4F1C04F14D3002D12DD04F01F0337
:1023B8002B4424F01F02BFF34F8F084C1344C4F87A
:1023C8005C222032991A0029F9DCBFF34F8FBFF342
:1023D8006F8FF8BD00E100E000D0005000ED00E094
:1023E80010B508240B4BC3F88840BFF34F8FBFF3D9
:1023F8006F8FFFF753FF084B5A685207FCD49A684F
:1024080002F038029A60986800F03000003818BF6F
:10241800012010BD00E100E000D00050082200209B
:10242800014B1A601860704700D00050930670B5D1
:1024380006460C4615461CD103291AD8FFF7EEFFAD
:102448003EB10D4B0D485A5C314608F019FB44F07B
:1024580020040B4B44F0800119651DB1C3F89C5052
:1024680044F4C07107482A46196500F0C3FB0020F0
:1024780070BD4FF0FF30FBE75CBA02205CD0005023
:1024880000D00050D9AB022010B5084C084A236D83
:1024980004F17C0103F00703D25C08F0F1FAD4F8E8
:1024A800A4100448BDE8104000F0A4BB00D00050C0
:1024B8005CBA02200DAC0220002800DAFEE70123F6
:1024C8004109034A00F01F00834042F82130704759
:1024D80000E100E0002800DAFEE70122064943098E
:1024E80000F01F008240203341F82320BFF34F8FB4
:1024F800BFF36F8F704700BF00E100E0022330B5E3
:10250800426A80F82D3003681A61D0E90234234307
:1025180004690168234344690A68234384696FF3A3
:102528000E122343C4692343046A234313430B60F5
:102538008368B3F5804F18D0C16C826CC1F38703F0
:10254800C9061BD43F2403F00703D2F8A810DB0008
:102558009C4021EA0401C2F8A810816C4268D1F8B5
:10256800A8409A402243C1F8A8208269B2F5806F3A
:1025780018D0B2F5006F1FD0AAB1FEE73F2403F0D0
:102588000303D2F8AC10DB009C4021EA0401C2F836
:10259800AC10816C4268D1F8AC409A402243C1F833
:1025A800AC20E2E701224369B3F5807F06D0B3F59A
:1025B800007F2BD01BB1FEE70222F4E7012301695B
:1025C800A1F1800461426141C468A4F140056C42F4
:1025D8006C418568102D1FBF80F865101946134699
:1025E8000A4680F8673080F866204FF000034FF005
:1025F8000102436406BF80F8654080F8641080F8E3
:10260800644080F82D2080F82C3030BD0223D6E7B6
:10261800F8B52E4B02681344A02B04D92C4B134455
:10262800A02B0FD9FEE73226DFF8B0C0294BEFF315
:102638001087012282F31088C56C1F2D4FEA95047C
:1026480005D9FEE70226DFF898C0234BEFE703EB36
:10265800C40595F804E0BEF1000F32D053F83420D9
:10266800824203D187F310880220F8BD00221C792A
:102678001D4604BB01232B71142303FB02C316441C
:10268800920074B20360C26487F3108821B12B688A
:10269800834201D0FFF732FF2860836A04F1604269
:1026A8005B01DBB202F56142204682F80033FFF796
:1026B80003FF0020D9E70132082A03F10803D6D125
:1026C800D0E734442A7164B2DEE700BFF8EFF7AF11
:1026D800F8EFFFBF28CC0420E8CB042008100850EE
:1026E8000810004038B5134A836C934203D0124A4D
:1026F800934208D0FEE73221104AC46C1F2C4FEADF
:10270800940303D9FEE702210D4AF6E7EFF310849C
:10271800012585F3108802EBC30552F83320904257
:1027280005D1581840B2FFF7D5FE00232B7184F36A
:10273800108838BD001008500010004028CC042034
:10274800E8CB042038B50446002852D0836833F01B
:10275800100203D0B3F5804F00D0FEE7E36833F0F2
:10276800400300D0FEE7236933F0800300D0FEE782
:10277800636933F4807203D0B3F5007F00D0FEE7BD
:10278800A36933F4806203D0B3F5006F00D0FEE78D
:10279800E36933F0200300D0FEE7236A33F44053A3
:1027A80000D0FEE763683F2B00D9FEE72268134B91
:1027B80013448C2B13D81422B3FBF2F3104A9B005A
:1027C80000212046C4E91223FFF722FF054690B9ED
:1027D8002046FFF793FEFFF785FF284638BD094BD3
:1027E80013448C2B05D81422B3FBF2F3064A9B0042
:1027F800E6E70125F1E70225EFE700BFF8EFF7AFBD
:1028080000100850F8EFFFBF0010004010B5044654
:10281800002851D00268136823F00103136002688E
:10282800264B13448C2B2FD81421B3FBF1F39B00B8
:10283800C364234BA36400231360D4E9121303F089
:102848001C02012393404B60E36CA16C0F2B4FEAF1
:10285800930224D83F205B00D1F8A82003F0380366
:1028680000FA03F322EA0303C1F8A8302046FFF771
:1028780039FF0020C4E90D00C4E90F00606484F842
:102888002C0084F82D0010BD0E4B13448C2BD2D88D
:102898001421B3FBF1F39B00C3640B4BCAE702F0AE
:1028A80003033F22D1F8AC00DB0002FA03F320EA6D
:1028B8000303C1F8AC30D9E70120E4E7F8EFF7AF3C
:1028C80000100850F8EFFFBF001000402DE9F84F46
:1028D80090F82D301746022B04468846DAB205D008
:1028E80004234364002384F82C3006E003681B6843
:1028F800990605D54FF4807343640120BDE8F88F2D
:10290800C56C05F01C05B8F1000F23D102FA05F5D6
:10291800FFF70AFC4FF0080A8146D4E9126303F076
:102928001C030AFA03F1326812EA050B16D0B8F153
:10293800000F36D1022202FA03F37360236D2BB91C
:102948002046FFF7CFFE012384F82D30002084F8BD
:102958002C00D3E7042303FA05F5D9E732681142BE
:102968000CD0012505FA03F3736020466564FFF770
:10297800B9FE84F82D5084F82CB0BEE77A1CD2D06A
:10298800FFF7D2FBA0EB0900B84201D8002FC4D151
:10299800202320466364FFF7A5FE012384F82D3029
:1029A800A0E7042202FA03F37360CFE730B5154BB2
:1029B800846C9C421BD18368102B02D0B3F5804FE6
:1029C80008D10B68104C03F16045A54298BF03F18C
:1029D80020630B60836833F4804308D113680A4886
:1029E80003F16044844298BF03F1206313600B68CD
:1029F80003F17042B2F1805F3CBF03F1A0430B606A
:102A080030BD00BF00100040FEFF07002DE9F34174
:102A18004FF6FF75036D02689D4228BF1D465B1B7C
:102A280003658565136890F8667023F0010390F8D4
:102A380067801360D0E917230E46CDE90023D0E95B
:102A4800122303F01C01012304468B4053600368E2
:102A580069465D6001AAFFF7A9FFDDE90003A168E7
:102A6800226810290BBF93609060236822680CBF0E
:102A7800D860D36094F8643023B1E36D05FA07F7A2
:102A88003B44E36594F8653023B1236E05FA08F5F5
:102A98002B44236636B1A26B23685AB11A6842F0F8
:102AA8000E021A602268136843F00103136002B033
:102AB800BDE8F0811A6822F004021A6022681368DF
:102AC80043F00A031360EDE7F8B51D46C3690446F1
:102AD800202B0F46164605D14FF6FD736A1E9A4203
:102AE80000D9FEE794F82C30012B0ED0012384F88E
:102AF8002C3094F82D30012BD9B203D12046FFF7A2
:102B080087FD20B1002384F82C300220F8BD022371
:102B1800C4E91455C4E9177684F82D306064206D33
:102B28000028F3D000212046FFF770FF236D002B0B
:102B3800F5D04FF47A7200212046FFF7C7FE00282F
:102B4800EDD0E3E7202A2DE9F84307460C469046E6
:102B580025DCC0F3C40909EB0203202B1FDC12F0AB
:102B6800030F1CD110F01F0519D10320FFF78EFAAF
:102B780029461D4E3F0ABB00336033681B4A43F0A9
:102B880001033360B368DB0701D491420CD1B36809
:102B9800914243F00103B36008D1FFF78BFA4FF07D
:102BA80000084046BDE8F8830131EBE7104A09F018
:102BB8001C0303EB471328F003011A4421448C42F9
:102BC80002D1FFF777FAECE752F8043B04341D0A08
:102BD80004F8043C04F8035C1D0C1B0E04F8025CAA
:102BE80004F8013CEBE700BF00C000500080BB00C8
:102BF80030C000500FB404B070470000022810B570
:102C080020D1114CE620E36A43F00103E362FFF7A9
:102C1800F0FAE36A9A06FCD51E20FFF7EAFAE36A9F
:102C28009B06FCD5EFF31081012383F31088074A34
:102C38001378132B00D9FEE70133137081F3108842
:102C4800002010BD0120FCE700000C5068CC0420D7
:102C5800044B1A6942F002021A611A69002AFCDA66
:102C6800704700BF00000C50024A136923F00203AA
:102C78001361704700000C5010B5E0B1D9B10023C2
:102C88000122436080F82A200C6804604A6880F8B2
:102C980028208A680261CA6812054261FF22C4F8C6
:102CA80084204FF0502401688C6701680A6201682B
:102CB80018464A6410BD0120FCE738B102680020BC
:102CC800136C23F0FF031943116470470120704708
:102CD80070B5C8B105689DF918609DF91C00AC6C09
:102CE80040EAC60040EAC3239DF910006FF31404BC
:102CF80043EA00239DF9140043EA801343EA423271
:102D080042EA81412143A96470BD40B102680020B4
:102D1800136C23F47F4343EA0121116470470120B7
:102D2800704770B5C8B105689DF918609DF91C0019
:102D38002C6D40EAC60040EAC3239DF910006FF3EA
:102D4800140443EA00239DF9140043EA801343EA7C
:102D5800423242EA81412143296570BD18B10368B6
:102D68000020596070470120704730B1036801396D
:102D7800C1F313010020596270470120704730B138
:102D880003680139C1F313010020996370470120DA
:102D9800704708B103681962704718B10368186969
:102DA80000F00100704720B10268536943F0010345
:102DB8005361704738B50D460446A8B10368DA6117
:102DC800436B0BB10120984723689D612046FFF7AC
:102DD800E4FF0028FAD02046FFF7E5FF636B0BB14C
:102DE80000209847002038BD0120FCE718B1026890
:102DF800536919435161704718B103681869C0F3E2
:102E0800C000704728B103685868C04300F001004B
:102E180070470120704708B103685868704720B1AF
:102E28000268536D61F38E235365704708B10368D8
:102E3800D960704710B10368D868C0B2704770B5E0
:102E4800E8B105689DF91C609DF92000AC6A40EA6C
:102E5800C6009DF910606FF3150440EAC6209DF97D
:102E6800146040EA06209DF9186040EA861040EA9E
:102E7800433343EA824242EA41512143A96270BD89
:102E880070B5E8B105689DF91C609DF92000EC6BF0
:102E980040EAC6009DF910606FF3150440EAC620A9
:102EA8009DF9146040EA06209DF9186040EA8610F2
:102EB80040EA433343EA824242EA41512143E9630B
:102EC80070BD000010B558B1064B046802F2FF321D
:102ED8000A441940E1661A40036800201A6710BDC9
:102EE8000120FCE700FCFFFF28B103686FF309012C
:102EF80000205967704701207047000010B550B195
:102F0800064B04681940E1650168002002F2FF32AF
:102F18001A400A6610BD0120FCE700BF00FCFFFF55
:102F280050B149B10B6802681BBA53664B68026816
:102F38001BBA0020936670470120704758B1036898
:102F480001291A6804D142F0800200201A607047F3
:102F580022F08002F9E70120704750B103681A682F
:102F680021B142F0400200201A60704722F040026E
:102F7800F9E70120704750B103681A6821B142F09F
:102F8800010200201A60704722F00102F9E70120CF
:102F9800704750B103681A6821B142F4001200204A
:102FA8001A60704722F40012F9E70120704750B107
:102FB80003689A6821B142F0100200209A607047B5
:102FC80022F01002F9E70120704750B103681A682F
:102FD80021B142F4803200201A60704722F4803216
:102FE800F9E70120704750B103681A6821B142F42B
:102FF800802200201A60704722F48022F9E701201D
:10300800704730B580B10568BDF80C00AC68800623
:1030180040EA8353002043EA81416FF39E1441EA5A
:1030280082122243AA6030BD0120FCE730B1026859
:103038000020936861F30203936070470120704792
:1030480050B103689A6821B142F0200200209A60CA
:10305800704722F02002F9E70120704750B1036859
:103068001A6821B142F0807200201A60704722F07D
:103078008072F9E70120704750B103689A6821B15E
:1030880042F0004200209A60704722F00042F9E7BF
:103098000120704750B103689A6821B142F00802D4
:1030A80000209A60704722F00802F9E70120704773
:1030B80040B102680020936D23F47F0343EA014185
:1030C800916570470120704760B100685206836DB2
:1030D80042EA012123F0007323F47F4319438165F9
:1030E800002070470120704710B5F0B10468A06D4A
:1030F800B1B1022A84BF023AD2B213026FF30F00B1
:1031080003F4FE430343120654BF43F0806343F0C5
:10311800A06343F00A0323F000730020A36510BDE9
:10312800034B034043F00073F7E70120F7E700BFC4
:103138000000FFFA30B10268936C23F4783343EA55
:1031480041319164704730B10268136D23F47833CC
:1031580043EA4131116570477FB5054600283DD0E7
:10316800C46801B394F86A30002B37D094F97260C0
:1031780094F96E3094F96C1094F96D20039694F9D3
:103188007160029694F97060019694F96F4000940A
:10319800FFF79EFDEB6893F86A102846FFF78DFD50
:1031A800002004B070BD94F84630BBB194F94E606D
:1031B80094F94A3094F9481094F94920039694F9FF
:1031C8004D60029694F94C60019694F94B40009436
:1031D800FFF77EFDEB6893F84610DEE70120E0E795
:1031E8007FB50546002836D0C468E1B194F96E6110
:1031F80094F96A3194F9681194F96921039694F95C
:103208006D61029694F96C61019694F96B41009492
:10321800FFF75EFDEB6893F866112846FFF74DFD52
:10322800002004B070BD94F95C6194F9583194F9A8
:10323800561194F95721039694F95B61029694F913
:103248005A61019694F959410094FFF741FDEB68E2
:1032580093F85411E1E70120E3E730B5C46887B07B
:1032680004B338291ED801EBC1010C44237CCBB12F
:1032780094F9185094F9133094F9122094F9111014
:10328800049594F91750039594F91650029594F9FA
:103298001550019594F914400094FFF7D0FD0020D3
:1032A80007B030BD0120FBE7F0B5C46806461746F5
:1032B80087B054B3382928D801EBC1052C44237CA6
:1032C8001BB394F918C094F9133094F9122094F9A7
:1032D8001110CDF810C094F917C0CDF80CC094F9AE
:1032E80016C0CDF808C094F915C0CDF804C094F9FB
:1032F80014400094FFF7A3FDF3683A462B44304688
:10330800197CFFF757FD07B0F0BD0120FBE72DE959
:10331800F0419046C268044686B0002A72D0382927
:1033280070D801EBC107D619317C00296AD0382B37
:1033380068D803EBC3052A44137C002B62D096F9A6
:1033480018C096F9133096F9122096F91110CDF895
:1033580010C096F917C0CDF80CC096F916C0CDF874
:1033680008C096F915C0CDF804C096F91460009607
:10337800FFF765FDE068284490F9186090F913306C
:1033880090F9122090F91110049690F9176003969D
:1033980090F91660029690F91560019690F914005C
:1033A80000902046FFF76CFD002223680121DA67B0
:1033B800E36822682B441B7C2046D36223680C9A5E
:1033C800C3F88020FFF701FE2046FFF70CFE2368B4
:1033D800C3F81C80E36822683B441B7C9361204649
:1033E800FFF70AFD0028FAD009212046FFF7FEFC66
:1033F8000021FFF7EAFD2046FFF7F5FD084606B075
:10340800BDE8F0810120FAE770B50446E0B3C3686F
:10341800D3B3C9B393F893510121B5B3FFF7A5FC12
:10342800002214212046FFF73FFF2046FFF7F3FC58
:1034380010F0010500D0FEE72A4615212046FFF7C7
:1034480033FF064620B12A4629462046FFF72CFFBF
:1034580002212046FFF782FC01212046FFF785FC68
:1034680000222B212046FFF71FFF6EB101212046C5
:10347800FFF77BFC002202212046FFF715FF2046BC
:10348800FFF7C0FC0028F5D070BDFFF76EFC2A4698
:1034980002212046FFF708FF2046FFF7BCFC2A461A
:1034A80014212046FFF700FF10B92046FFF7B3FCB0
:1034B800E3681B7AABB3012103F00F051B0901FA7E
:1034C80003F3DBB20DB11D4600230022152120466F
:1034D80043EA0525FFF7E8FE064620B1002220460C
:1034E8001146FFF7E1FE29462046FFF737FC022187
:1034F8002046FFF73AFC002203212046FFF7D4FEBE
:10350800002EC1D001212046FFF72FFC0022022106
:103518002046FFF7C9FE2046FFF774FC0028F5D0C7
:10352800B2E70225D1E738B504460D46FFF76CFF30
:1035380029462046BDE83840FFF70EBE38B5044698
:103548000D46FFF761FF29462046BDE83840FFF7E2
:1035580047BE10B5044640B10268936A6FF315037D
:1035680043F4802343F00103936203212046FFF7CD
:10357800FCFB00229F212046FFF71CFC2046FFF79A
:103588004AFC20F07F4010BD70B5044600283ED0AC
:10359800C368012193F89351002D3BD0FFF7E5FB59
:1035A800002202212046FFF77FFE88BB2046FFF756
:1035B80032FCC0B2E368DD790DB120EA05050022CE
:1035C80015212046FFF770FE064620B1002220464E
:1035D8001146FFF769FE29462046FFF7BFFB012188
:1035E8002046FFF7C2FB002203212046FFF75CFEBE
:1035F8006EB101212046FFF7B8FB002202212046C8
:10360800FFF752FE2046FFF7FDFB0028F5D070BDFE
:103618000020CFE7FFF7A9FB2A4602212046FFF743
:1036280043FE00283ED12046FFF7F5FBC6B2002234
:1036380014212046FFF738FE18B92046FFF7EBFBA8
:10364800C5B2E368D97909B126EA0101002220460A
:1036580041EA05251521FFF727FE064620B100227D
:1036680020461146FFF720FE29462046FFF776FB45
:1036780002212046FFF779FB002203212046FFF7AD
:1036880013FE002EC3D001212046FFF76EFB002257
:1036980002212046FFF708FE2046FFF7B3FB00286B
:1036A800F5D0B4E72E46C2E760B1006850B1836D2B
:1036B800090623F0807301F0807123F0FF031143A2
:1036C80019438165704738B50446D0B10368AB210A
:1036D8001D6815F0010502BF1A6842F001021A6060
:1036E8000268936A6FF3150343F0010393620022A3
:1036F800FFF760FB25B92268136823F00103136004
:1037080038BD0120FCE718B1C068003818BF012097
:103718007047002070472DE9F047884699460446CF
:10372800002845D08368002B42D0B9F1000F3FD064
:1037380001680F6832B310229A60002382684E46EF
:103748005361826893618268D360802283681A61BA
:1037580005680435A068FFF759F850BBA068FEF764
:10376800F1FF30BB236847F020071F60226809F18A
:10377800FF335362414633462A46A068BDE8F04706
:10378800FFF7A2B94FF400719A60836809F1030644
:1037980059614FF400618368454699618368B608AA
:1037A800DA60802283681A61036803F10408D1E7AC
:1037B8000120BDE8F08710B50A46044670B180685C
:1037C80060B1616B11B14FF0FF320021FFF77EF855
:1037D8002268136823F02003136010BD0120FCE762
:1037E80038B51D46044658B103698B4298BFC91ABB
:1037F800FFF768FB29462046BDE83840FFF774BB51
:1038080038BD70B50C4615461946064680B17BB1E1
:10381800FFF786FB33693046A34298BFE41AAB42F0
:1038280098BFED1A2A462146BDE87040FFF766BBEF
:1038380070BD10B5044648B101B10121FFF77EFB08
:103848002046BDE810400121FFF787BB10BD10B529
:103858000B46044686B020B308294FF000014FF00C
:10386800010283BF0B46CDE90212CDE90011CDE973
:1038780002118EBF1946CDE900115BB20492FFF721
:10388800DEFA03212046FFF770FA00229F21204626
:10389800FFF790FA2046FFF7BEFA20F07F4006B007
:1038A80010BDFF20FBE738B50D46044698B3C36842
:1038B8008BB39A7992B39B7A83B30121FFF755FAB8
:1038C800E36802219A792046FFF7EEFC2046FFF7CD
:1038D800A2FAE3689B7ADDB143EA00012046FFF7CC
:1038E8003DFA01212046FFF740FAE36803219A795F
:1038F8002046FFF7D9FCE36884F82D5002219A7915
:103908002046FFF7D1FC2046FFF785FA002038BD96
:1039180020EA0301E2E74FF0FF30F8E76FF001001B
:10392800F5E710B5044620B3C2681AB313791BB380
:10393800D3790BB30121FFF718FAE36802211A794A
:103948002046FFF7B1FC2046FFF765FA94F82C20D3
:103958003F2A4FEA121304D8012B08D800F0300090
:1039680007E0043B012BF9D800F0F00001E000F07B
:10397800700010BD1046FCE71846FAE70346081128
:1039880072B1072B0CD8DFE803F0040D182E353F71
:10399800474C28B1012813680AD143F0010313608A
:1039A8000020704720F00203012B03D0D0B1136828
:1039B800034316E013680343F1E70528F7D801A38A
:1039C80053F820F0A9390220BD390220E539022038
:1039D800BD390220B7390220BD390220136843F0EF
:1039E8000203136070470028DAD0431E052B1368C2
:1039F800E1D9DDE7C30700F0030102D40029CFD0E5
:103A0800D5E713680B43CAE70028C9D0136808280C
:103A180043EA0003E5DCC2E70028C1D0431E012BBE
:103A2800E5E70028BCD0431E022BE0E710B590F86C
:103A38002D3004460BB9002010BDFFF772FF014678
:103A48000028F8D06268E06B42F40042626038B93E
:103A580094F82C00221D0009BDE81040FFF78EBF26
:103A6800B1F5007F4FEA211300DBFEE70168D9407A
:103A780011F0010F18BF184643EA020308BF0020DF
:103A88006360D9E738B50D46044648B3C3683BB30D
:103A98009A790AB11B7A0BB9002038BD0121FFF7CA
:103AA80064F9E36802219A792046FFF7FDFB204676
:103AB800FFF7B1F9E3681B7A7DB143EA00012046BC
:103AC800FFF74CF901212046FFF74FF9E36803217E
:103AD80020469A79FFF7E8FBDEE720EA0301EEE7E4
:103AE8004FF0FF30D9E738B50D4601210446FFF7FE
:103AF8003CF9C92D01D0012D09D102212046FFF73B
:103B08002DF9E368032120465A79FFF7CDFB002100
:103B18002046FFF723F9E368032120465A79FFF787
:103B2800C3FB002038BD40B190F82C3013F0010FD2
:103B380014BF4FF480504FF4006070472DE9F04FE8
:103B480085B00E4691461D4604460F9FB0B1C36826
:103B5800A3B1C36993B1802F10D8FFF7E4FF00F138
:103B6800FF3A0AEA010A0AEB05038342804607D9AD
:103B780002206060002005B0BDE8F08F0120F8E762
:103B88000023636023694FF0000B8B4298BFCE1A65
:103B9800B6FBF0F204212046FFF786FB1420FEF75F
:103BA800C9FA01212046FFF7E0F80520FEF7C2FA1E
:103BB800E268022112792046FFF776FB2046FFF7DC
:103BC8002AF9C107F1D4BBF1000F02D14FF0010B64
:103BD800EBE72046FFF72AFF10B140F40040C8E7A2
:103BE80094F82820E368B2BB93F846102046FFF704
:103BF80064F8E06890F94EC090F94A3090F949208D
:103C080090F94810CDF80CC090F94DC0CDF808C017
:103C180090F94CC0CDF804C090F94B0000902046B4
:103C2800FFF756F8B203D4F810B004D594F82F2053
:103C38000AB14BF4805B49EA050242EA0A0293079B
:103C480002D16A1EFE2A21D82A4648460BEB0A01F1
:103C580006F016FF1DE093F86A102046FFF72DF8CE
:103C6800E06890F972C090F96E3090F96D2090F983
:103C78006C10CDF80CC090F971C0CDF808C090F95F
:103C880070C0CDF804C090F96F00C7E7B9F1000F14
:103C9800DAD10E9B2BB13A4618460BEB080106F019
:103CA800EFFE781967E708B50246FFF73CFF28B131
:103CB80092F82C309B074CBFC001800108BD1FB58E
:103CC800044610B9002004B010BD036A002BF9D0D7
:103CD800FFF7E9FF0423019303AB0093002341435B
:103CE8001A462046FFF72AFF40B19DF80C30FF2BFB
:103CF800E8D00398002808BF0120E4E70120E2E7A4
:103D08002DE9F04F99B004460E469146FFF7FBFCAB
:103D180018B3002B00F0D780B3F5807F28BF4FF48D
:103D28008073A1681D46626994F8283000293BD049
:103D3800B2F1807F14D9022B14BF272728273946D0
:103D48002046FFF78AFA49462B4601222046FFF70C
:103D5800E2FC014648B10025284619B0BDE8F08FBD
:103D6800022B14BF16271727E9E732462046FFF72C
:103D78009BFA01212046FFF702F8012332460093FF
:103D8800394602232046FFF7C2FA0028E3D14FF450
:103D98007A712046FFF70FFD0028DCD122681368EE
:103DA80023F020031360D7E7B2F1807F40F28280CE
:103DB800022B14BF272328232F464FF00008039314
:103DC8004FF6FC7A402FD4BF0AEA070A0AF0400AE5
:103DD800BAF1000F3FD0002220461146FFF764FADF
:103DE80009EB08030DF1200C03F1400E6246186838
:103DF8005968083303C273459446F7D14FF0000B56
:103E08004FEAAA0208AB53F8041B20460592049314
:103E1800FEF7A4FF059A0BF1010B9345049BF2D121
:103E280051462046FEF7A1FF2046039906EB0802FB
:103E3800FFF73AFA01212046FEF797FF00220221F8
:103E48002046FFF731FA2046FEF7DCFF0028F1D0C4
:103E5800A7EB0A07D0447B1E022B30D823694644BF
:103E680033431B683A4609EB080107A8079306F095
:103E780007FE002220461146FFF716FA079920464A
:103E8800FEF76CFF04212046FEF76FFF32462046FE
:103E98000399FFF709FA01212046FEF766FF002281
:103EA80002212046FFF700FA2046FEF7ABFF002864
:103EB800F1D051E7022B14BF162317237CE7002FFC
:103EC8003FF77EAF48E7184647E773B504460D4607
:103ED800FFF719FCE8B163690A46B3F1807F4FF038
:103EE8000001204694BF1B262926FFF7DDF9012192
:103EF8002046FEF744FF01232A4600933146022359
:103F08002046FFF704FA003818BF0120404202B0EB
:103F180070BD4FF0FF30FAE708B5E8B103680F4A03
:103F280093420CD002F58052934215D1062001F03D
:103F380075F8022805D1BDE8084001F0A4B80420AE
:103F4800F5E7032803D1BDE8084001F09FB8012038
:103F5800BDE8084001F0FEB8002008BD001004507C
:103F680038B5054608B9002038BDFEF763FF04469A
:103F78000028F8D02846FFF7CFFFB0FBF4F0F3E7AE
:103F880038B190F82B3013B10021FFF760BCFFF770
:103F9800E0BAFF2070477FB504460A4651B3C568AA
:103FA80095F8FF31002B3BD090F82830C3B395F932
:103FB800076295F9022295F9033295F901120396E1
:103FC80095F90662029695F90562019695F90452EB
:103FD8000095FEF77DFEE368204693F8FF11FEF793
:103FE8006CFE0121204694F82D20FFF77DF8002073
:103FF80004B070BDFFF778F8636994F82810B3F13E
:10400800807F06D919B92046FFF7EAF8EFE70121C2
:10401800F9E719B92046FFF79FF8E8E70121F9E722
:104028000120E5E710B50446F0B102681420D2F883
:10403800943043F00043C2F89430FEF7DAF823686E
:10404800D3F89420D205FBD5D3F89400D3F8942064
:10405800C0B222F00042C3F8942094F82D3023F027
:104068007F03034384F82D3010BD00002DE9F04391
:104078000E4690461F46044687B0002800F0E580AB
:10408800002900F0E280FEF7F7FD2068FFF741FB0A
:104098003369002184F84430B3680546A364F368A3
:1040A80084F82C101B05E364022384F84630336936
:1040B800C4F808805A1E5342534184F82B30B8F193
:1040C800000F58D0002F56D03B68C8F80030A368BE
:1040D800FA685A601022A3689A608022A368D9609F
:1040E800A3681A614FF48052A3685961A368996163
:1040F800A368D961A3681A62A3685962C0B16FF056
:104108007F43984214D0012794F82B30002B3DD1DF
:10411800002F5AD12046FFF7D6FA3846FEF769F83D
:104128003220FEF766F82046FFF72AFF05464CE0E6
:1041380001212046FEF773FEB34BA26920469A423E
:104148004FF000028CBF01211146FFF7ADFA20465F
:104158009DF83810FEF76AFE94F845302BB1012B14
:1041680010D100212046FEF779FF01212046FEF7F5
:1041780002FF0027C8E7002DDED06FF07F439D4285
:10418800C1D1D9E7022BF0D10121EBE72268002643
:104198009368314643F0707393600123324620469A
:1041A800CDE90363CDE9016633460096FEF747FE85
:1041B8003246FF212046FEF7FDFD3046FEF719F88E
:1041C800C820FEF716F8002FADD094F82B30EEB2C9
:1041D800C5F307282564C5F30745424629463046F6
:1041E800ABB301F0FDF9E060A0BB94F82B302BB322
:1041F80008212046FFF72BFBC0F30728C0F307452B
:10420800C6B2206442462946304601F0E9F9E0602A
:1042180000BB0F212046FFF71AFBC0F30728C0F3A5
:104228000745C6B2206442462946304601F0D8F90F
:10423800E06078B901F0ECF9E06058B90021204657
:10424800FEF799FE0023C4E91233012053E001F080
:1042580069F9C8E794F82B30424629463046002BC6
:104268004CD001F0E3F9424629468146304601F038
:10427800E7F94246294684F82F00304601F0E9F96B
:104288004246294684F82C00304601F0EBF994F8B0
:104298002C30424643EA00132946304684F82C3035
:1042A80001F0B0F9E063B9F1000F03D0C4F84C9005
:1042B800C4F8149094F82B30002B40F08480002F21
:1042C8007ED12046FFF760F96369B3F1807F48D952
:1042D8003A4621212046FEF7E7FF94F828300BBB29
:1042E8003946204684F82E70FFF728F90721204622
:1042F800FEF79CFE002007B0BDE8F08301F026F928
:10430800424629468146304601F034F94246A063C8
:104318002946304601F0DDF8E0630028C3D0036881
:10432800A363C0E701212046FFF708F994F82E900F
:10433800B9F1010FDAD142462946304601F010F9A9
:1043480038B12046FFF76EFE49462046FFF723FEA8
:10435800CCE73A4639462046FEF7C6FE84F82E706A
:10436800C4E794F8283033B93946204684F82E70CB
:10437800FFF7D9F8BEE701212046FFF7D4F894F8F3
:104388002E90B9F1010F15D142462946304601F069
:10439800E7F838B12046FFF745FE49462046FFF7C3
:1043A800FAFDA7E73A4639462046FEF79DFE84F80F
:1043B8002E709FE73A4639462046FEF795FE99E764
:1043C80084F82E3096E701212046FEF7CEFCE368FC
:1043D80002211A792046FEF767FF2046FEF71BFDEB
:1043E80005460A20FDF705FFEB07ECD431462046C9
:1043F800FFF779FB94F82830022B7FF47BAF01217B
:104408002046FFF73FFB75E700E1F5051FB5019072
:10441800019B114C0BB1206840B9002000F0AAFEA6
:104428000E4BB0FBF3F0019B20609BB1302882BF9C
:10443800019B03F1FF330193019B5BB10522019BB3
:10444800013B4343B3FBF2F30393039B5A1E0392CE
:10445800002BFAD104B010BD6CCC042040420F00F0
:1044680070B50E461546044658B302220368DA6052
:104478000268936D23F00073936502680020D2F8F8
:10448800943043F00043C2F89430FFF7BFFF142084
:10449800FFF7BCFF2068D0F89430DB05FBD5D0F8D7
:1044A8009430D0F89420DBB222F00042C0F8942077
:1044B8005A1E327001220020043B2B702368DA60F8
:1044C80070BD0120FCE7000037B5144605460028FA
:1044D80043D0002941D0FEF7CFFB2846E1B2FEF7D2
:1044E800A5FC2846FFF73CFD1D4B984230D91D4BD3
:1044F80098422FD91C4B984222D940F2B63440F248
:1045080074431A4A904288BF1C460022012128465B
:10451800FFF7CAF800212246022328460091FEF739
:1045280070FD044648B906212846FEF77FFD04467B
:1045380018B901212846FEF71EFD204603B030BDFC
:104548000B4B4FF43E749842DFD800221146DEE749
:10455800B424FAE74FF4BE74F7E70124EDE700BF8F
:1045680000366E01006CDC0200D8B805000E270783
:1045780000879303F0B50E461746054687B0D8B1B5
:10458800072200240323CDE903220121CDE90143B9
:1045980000942346FEF753FC02212846FEF7E5FB6C
:1045A80039462846FEF7DAFB3246C0212846FEF790
:1045B80001FC204607B0F0BD0120FBE72DE9FF41D3
:1045C8000C4616461F460546002840D06B46214A31
:1045D8001068516803C39068D16803C32846E1B2E4
:1045E800FEF74AFD07F110036B4413F8088C4FEAF5
:1045F80048185FFA88F80CB304AB03EB560313F8BA
:10460800104CA40044F0210464B204F0FD0200211F
:104618002846FFF7AFFF711E284649B2FEF78AFD0C
:10462800424604212846FFF7A5FF791E284649B2CD
:10463800FEF789FD002004B0BDE8F08106F1100303
:104648006B4413F8104CA40044F00104DCE701208B
:10465800F1E700BF60BA0220F0B50E4617460546DE
:1046680087B0D8B1072200240223CDE90322012113
:10467800CDE9014300942346FEF7E1FB04212846D7
:10468800FEF773FB39462846FEF768FB3246C02121
:104698002846FEF78FFB204607B0F0BD0120FBE758
:1046A80030B5054685B0A0B100240721022390F853
:1046B8002D20CDE902115200CDE9004352B2234624
:1046C800FEF706FB21462846FEF7F7FA204605B016
:1046D80030BD0120FBE730B5054685B090B1072114
:1046E80000240223CDE90211CDE90043234690F9C5
:1046F8002E20FEF716FB80212846FEF706FB2046F3
:1047080005B030BD0120FBE7F0B5044687B00028AE
:104718003BD090F82B30052B34D0033B012B2ED8FF
:10472800012603270023072576B27FB21A46012106
:104738002046CDE90355CDE901570096FEF77FFBEA
:104748000022FF212046FEF735FB94F82B30052B7D
:104758000FD1002301211A462046CDE90355CDE9A2
:1047680001570096FEF76BFB0022FF212046FEF75B
:1047780021FB0020FDF73DFD0320FDF73AFD002059
:1047880007B0F0BD03260227CCE70120F8E70000B8
:1047980030B5044685B0002871D000296FD0FEF7E7
:1047A8006BFA2368012120461D68FEF73FFB20466F
:1047B800FFF7D6FB4008A0610DF10E0220460DF16F
:1047C8000F01FFF74DFEA3692E4A05F0010593423C
:1047D80036D8202303218DF80E308DF80F30084687
:1047E8000023B42284F82D1084F82E10062100909E
:1047F8002046FEF706FC07212046FEF717FC01219C
:104808002046FEF747FC9DF80E102046FEF750FCA8
:1048180000229DF80F102046FEF756FC0121204685
:10482800FEF7A9FB01212046FEF7B3FB2DB9164B75
:104838001B6803F00303032B1DD1002005B030BD16
:10484800124A93420BD902F1B77202F558529342B9
:104858000BD907211420082340F23252C2E7052160
:104868000E20032340F2B632BCE7062111200523AF
:1048780040F27442B6E72046FFF746FFDDE7012025
:10488800DCE700BF00366E0100000C50000E270761
:10489800F0B5044685B0002800F09780002900F0A4
:1048A8009480FEF7E9F92368012120461E68FEF787
:1048B800BDFA2046FFF754FB4508A56120460DF1D7
:1048C8000E020DF10F01FFF7CBFD414B414F9D4209
:1048D80006F0010650D8202303218DF80E308DF8FC
:1048E8000F30B4220023009120460621FEF789FBF1
:1048F80007212046FEF79AFB01212046FEF7CAFB56
:104908009DF80E102046FEF7D3FB00229DF80F10ED
:104918002046FEF7D9FB01212046FEF791FB012135
:104928002046FEF728FB01212046FEF732FB2EB970
:1049380094F82F3013B92046FFF7E6FEBD423AD966
:10494800254B9D423CD90622022388253B2684F824
:104958002E30012184F82D202046FEF78DFB3246AB
:1049680000212046FFF778FE2A4604212046FFF75B
:1049780073FE002005B0F0BDBD420DD9164B9D4217
:104988000FD903F1B77303F558539D420ED814217C
:10499800082340F23252A6E70E21032340F2B63232
:1049A800A1E71121052340F274429CE7172109234E
:1049B8004FF4BE6297E70422002308253326C6E792
:1049C8000522002308253726C1E70120D2E700BFCA
:1049D80000366E01000E27070044950870B50E4694
:1049E8001546044686B0F8B107220323CDE9012312
:1049F8000023CDE9032200930121FEF720FA314676
:104A08002046FEF7C6F902212046FEF7AEF92946F0
:104A18002046FEF7A3F94FF480326021204606B005
:104A2800BDE87040FEF7C6B906B070BD38B504469B
:104A38000122FFF7ADFEA369154A93421FD9154A13
:104A480093421FD902F5740202F5105293421CD901
:104A580042F28F7541F28F720F498B4298BF15460B
:104A680001212046FEF7A3FA2A4620460021FFF737
:104A7800B5FF01212046FEF7FFFA002038BD4EF2AF
:104A88008F75EDE74FF28F75EAE740F28F75E7E72C
:104A980040FF100500EA3206004495081FB560B1D2
:104AA8000721032390F82D20CDE90013013A0023B4
:104AB800CDE9021152B2FEF70BF905B05DF804FB1F
:104AC8001FB560B10721032390F82E20CDE900130C
:104AD800013A0023CDE9021152B2FEF722F905B0DE
:104AE8005DF804FB8B10A3F14802F0B5D6B2042E92
:104AF80049D8022E10D8254D0E2405EB820540F228
:104B0800B222A1EB86039BB2A3F59073032B3AD88C
:104B1800DFE803F0091A27201D4D9B003D2440F2D1
:104B280021321D44EDE70E2C4FF0080620D14FF43A
:104B38007C512F68031BB3407B400B4010447B40E3
:104B4800001B2B6080B2F0BD0E2C4FF0000612D176
:104B58003F21EEE70E2C4FF010060ED14FF47C11DA
:104B6800E7E70E2C4FF018060AD14FF07C51E0E72A
:104B78004FF4E061DDE70721DBE74FF4E021D8E7F8
:104B88004FF0E061D5E70020DDE700BF58B00050E6
:104B98000CEF0040002A31D02F2816DD3A282DDCF2
:104BA8000123174A2A388340106F11F0200F14BFD1
:104BB800184398431067124A11F0100FD16E14BFB2
:104BC8000B4321EA0303D36670472638032815D818
:104BD8000C4B11F0200F53F8202014BF42F01002A4
:104BE80022F0100243F8202053F82020C9064CBFB9
:104BF80042F0080222F0080243F82020704700BF64
:104C080000B00C505CB00C5038B14FF0A042936823
:104C1800064843F00403936070474FF0804253689E
:104C2800034843F008035360704700BF003000504A
:104C3800003000403B28C8BF3C38430162B1074AF6
:104C48000020134433F810208A4204D00130102881
:104C5800F8D14FF0FF307047014AF1E7FCB202206B
:104C68005CB202202DE9F0471546044618B94FF00A
:104C7800FF30BDE8F0873A28CDBF00270127064658
:104C8800A0F13C063846FFF7BFFF8046002F00F032
:104C98005081A4F1260003280AD8DFF8C4C204F121
:104CA8008043263B5CF8232022F002024CF82320A4
:104CB800A1F590739BB20B2B04D82046FFF712FF87
:104CC800014625E0A1F59C739BB2072B44D84A10F6
:104CD8009C3AA1EB420189B2B1F59C7F37D040F2F2
:104CE8003913994240F02C814FF0080E4FF47C5C48
:104CF8009449A4F10E0351F8220003FA0EF343403D
:104D080003EA0C03434041F8223004F5297189B2C3
:104D18003A462046FFF78EFFB0F10009A7DB06F1FF
:104D2800804629462046013E3A46FFF733FF58F8A9
:104D3800263009F00F0005F03005054323F03F0346
:104D48001D4345F04005002048F8265091E74FF0F4
:104D5800000E4FF03F0CCBE7A1F5EC739AB2092A8D
:104D680037D80522B3FBF2F3C3EB8332C3EB8202DD
:104D78000A4492B2A2F5EC7188B2032814D84FF015
:104D88003F0E7148C90050F823C0A4F10E028A40B2
:104D980082EA0C020EFA01F10A4082EA0C0240F89B
:104DA800232004F25521B2E7B2F5EE7F40F0C88027
:104DB8003F216648DA00D0F86CC0A4F10E03934096
:104DC80083EA0C0301FA02F2134083EA0C03C36678
:104DD800E7E76FF4017C01EB0C0293B2052B28D8AE
:104DE8000323B2FBF3F2C2EB823302EB83030B44DF
:104DF8006FF401719BB203EB010C1FFA8CFCBCF140
:104E0800020F00F29D80DB00A3F581535049A4F105
:104E18000E0E083B0EFA03F3DFF848E151F82200C2
:104E28005EF82CC0434003EA0C03434041F82230AB
:104E3800B7E76FF4F8728B189AB2092A2AD8B1F535
:104E4800FC7F16D2590813F0010F424B4FF03F0078
:104E5800414A18BF1A46C9008840D2F800C0A4F1D8
:104E68000E038B4083EA0C03034083EA0C031360B0
:104E780097E707D040F2F913994207D100213F2064
:104E8800364AEAE710214FF47C10F9E708214FF47D
:104E98007C50F5E76FF45873CB189BB2052B3FF69F
:104EA80037AF03284CD804F18043A1F26232DFF80F
:104EB800B0C0263B042A15D8DFE802F0382A0331AF
:104EC80023004FF440524FF0E04A4FF0005EDFF805
:104ED8009890D9F8040020EA0A0040EA0E00C9F8C0
:104EE800040000E000225CF8230020F4E0400243C4
:104EF8004CF823205CF8232042F002024CF82320CF
:104F080006E74FF440524FF0E04A4FF0405EDEE7CC
:104F18004FF400524FF0606A4FF0806ED7E74FF4BD
:104F280000524FF0606A4FF0C06ED0E74FF48052E5
:104F3800D9E7A1F596739BB2072B3FF6E9AEBCE61D
:104F48000021E5E648B0005064B0005000B00050C1
:104F580070B000507CB0005078B0005080B0005065
:104F68005CB00C5070BA022000000C503A2838B5DA
:104F7800CDBF002501250146A0F13C010446284685
:104F8800FFF742FE01F18043013B50F823102A4607
:104F980021F05F0141F00F0140F823102046002165
:104FA800FFF7F8FD002038BD054B9A6E20B142F09E
:104FB800200200209A66704722F02002F9E700BF1D
:104FC80000A00C5007B5134A134902EBC002D1F8F0
:104FD8009C309278022862F30303C1F89C300DF1EB
:104FE800070011D107F0F6FA10B10B238DF807303E
:104FF800094A9DF80710D2F8943061F30303C2F808
:10500800943003B05DF804FB07F0F0FA0028EFD005
:105018000D23EBE78CBA022000A00C504FF0A04300
:105028000D281A6A0DD842F6F173C34013F0010F28
:105038000CBF012303238340134023FA00F0C0B2BE
:1050480070470123F7E70000012803D002280ED09B
:10505800002070474FF0A043DB6A63B113F00100F2
:105068000AD00648C3F3830303FB000070474FF0E0
:10507800A0431B6BF1E71846704700BF00366E016E
:105088000120FFF7E1BF0220FFF7DEBF00207047D5
:10509800234BA1F1B771A1F55851994210B53CD8ED
:1050A800012802D0022836D0FEE71E4C1E4BD3F84A
:1050B8009420900758BFD3F894204FF000005CBFAD
:1050C80042F00202C3F89420D3F89420D2075EBFBE
:1050D800D3F8942042F00102C3F89420134A2368BD
:1050E800B1FBF2F123F001032360236823F400539A
:1050F80023F03C0343EA810343F4805343F0010364
:105108002360FDF776F80A20FDF773F82368002B73
:10511800FCDA002010BD064CC8E70120FAE700BF02
:10512800002A75152C00005000B0005000366E01A2
:105138003000005001460120FFF7AABF01460220B7
:10514800FFF7A6BF4FF0A042D36A002023F0010367
:10515800D3627047012808D14FF0A0431B6A03F0BF
:105168000303032B01D1FFF78BBF0148704700BF32
:10517800006CDC02021E08BF012208B51046FFF7CA
:10518800E9FF012A02D0022A0AD0FEE74FF0A04325
:105198005B6ADBB2012BB8BF0123B0FBF3F008BD9B
:1051A8004FF080435B6903F03F03F3E74FF0A04300
:1051B80010B50D281B6A18D842F6F172C24012F0D9
:1051C800010F0CBF0122032202FA00F411404FF034
:1051D800A04223EA040381400B43136220B9012053
:1051E800FFF7C8FF024B186010BD0122ECE700BFB3
:1051F800102C04200028D8BF002008B5CCBFFF23FE
:105208000346002912DB002A43F4E06340EA012048
:105218000EDA4FF0A0414A6A22EA030303434B62C5
:105228000120FFF7A7FF074B186008BD002A04DB21
:1052380043F4E04340EA0230EBE7002BF0D0FF23D1
:10524800E7E700BF102C042070B50C46194D064640
:10525800FFF7B8FE2B69FA2023F004032B61FCF753
:10526800C8FF302C0DD800210846FFF79FFF3020DB
:1052780004220021B0FBF4F0FFF7BCFF0024204615
:1052880070BDFDF7E5FC0C4800EBC60043680B4811
:10529800EB616043FFF74EFF04460028EFD1012180
:1052A80006220846FFF7A6FF03212046FFF77EFFE8
:1052B800E4E700BF00B000508CBA022040420F0063
:1052C8002DE9F3411D4C1E4F04EBC0023B6B927855
:1052D800054662F317534FEAC0083B630DF1070018
:1052E8000E4607F077F910B10B238DF807309DF8BB
:1052F800071014F93520FB6C0A44002162F385037A
:105308000846FB64FFF752FF302E00D9FEE7302035
:1053180004220021B0FBF6F0FFF76CFFFFF712FF45
:10532800FDF7A2FC4444074B6268DA611A6942F04F
:1053380004021A6102B0BDE8F08100BF8CBA0220F5
:1053480000A00C5000B0005070B5314E05463378BF
:105358000C46012B43D9023B012B02D901252846D3
:1053680070BD2C4B53F82120FFF78DFE9042F5D8E5
:10537800012905D829462046FFF7A2FF002535E078
:1053880000210846FFF712FF2046FFF71BFEFA2010
:10539800FCF72FFFFFF7D6FE302D0DD8FDF764FC84
:1053A80000210846FFF702FF042200213020B0FB4D
:1053B800F5F0FFF71FFFE1E7FDF74AFC16486843E1
:1053C800FFF7B8FE05460028C8D101210622084685
:1053D800FFF710FF03212846FFF7E8FECEE7012973
:1053E80009D901462046FFF72FFF054600203470F3
:1053F800FCF7FFFEB3E78B4203D14FF0FF321146B3
:10540800D4E790210220FFF71FFF0028A6D1B1E7BB
:10541800142C04207CBA022040420F00134A13685F
:10542800590721D4116800280CBF01234FF0FF331E
:1054380041F0040111604FF0804243F4801313607F
:1054480011680029FCD0094A116CC80606D5116CF0
:1054580041F002011164116CC906FCD44FF080417F
:105468000A6822EA03030B60704700BF000004408B
:10547800431C13D010F0E00F81B200D0FEE710F407
:10548800406FC0F38122C0F3012308D19B0003F1D0
:10549800A04310330122C9B28A401A607047012A1A
:1054A80004D19B0003F180430833F3E7FEE7F028BB
:1054B8000DD8902807D8302807D8182894BF00217D
:1054C8000121FFF741BF0321FBE70221F9E7012092
:1054D800704700207047002070470000F8B5044668
:1054E8000138C0B2FD2816D800250D4E56F8040B19
:1054F800077837B90135062DF8D12046FFF7EBFFBD
:105508000DE0A74205D14778974202D187788F42AC
:1055180003D00830ECE7002001E003B11D70F8BDAE
:10552800182C042007B50DF10703FFF7D7FF064B2A
:1055380040B14FF405719DF8072001FB023003B01C
:105548005DF804FB1846FAE7602E042008B500232E
:10555800FFF7C4FF08B1406808BD4FF40020FBE71F
:1055680008B50023FFF7BAFF10B1C07800F00100BA
:1055780008BD000008B50023FFF7B0FF30B1C378BD
:10558800034803F00603022B18BF002008BD00BF24
:1055980000C0FF0000207047F8B504460138C0B2CB
:1055A800FD2816D800250D4E56F8040B077837B994
:1055B8000135062DF8D12046FFF7ECFF0DE0A74294
:1055C80005D14778974202D187788F4203D00830B7
:1055D800ECE7002001E003B11D70F8BDD83A0420C3
:1055E80007B50DF10703FFF7D7FF30B14FF4057288
:1055F8009DF80730024802FB030003B05DF804FB86
:10560800203D0420002070474FF0FF307047000015
:1056180008B5FFF7F9FF031EA5BF4FF4057202484E
:10562800002002FB030008BD203D042008B500232C
:10563800FFF7B2FF08B1406808BD4FF08060FBE794
:1056480008B50023FFF7A8FF10B1C078C0F34000E9
:1056580008BD08B50023FFF79FFF10B1C078C0F35D
:10566800810008BD08B50023FFF796FF08B1C07890
:10567800000908BDF7B5214B06461D68204B043DBF
:105688001F68002300F11A0EAB4202DB002003B0B2
:10569800F0BD318B21B3728B3AB3B94201D2974234
:1056A80005D9184B1B680BB117489847FEE701331B
:1056B8001C46AC4201DB0436E6E73EF824C0BCF1E8
:1056C800000FF8D0624509D10E4B1D682DB1063484
:1056D80030F824300D480092A847FEE70134E8E787
:1056E80000EB8302528B002AD0D0064A146824B1FA
:1056F80000EB83035A8B0648A047FEE790CC0420B2
:1057080094CC042080CC04201CAC022039AC0220AC
:1057180086AC02204FF0FF3210B5074C0144884296
:1057280001D1D04310BD10F8013B5340DBB254F80F
:10573800233083EA1222F2E7ACBA0220F8B5144B00
:1057480001461E68B0421ED238B1124B00221C68B6
:10575800114B043C1D46944200DCF8BD1F8B8F4260
:105768000AD105EB82056A8B96420FDD0B4B1B684D
:105778000BB10B489847FEE717B95F8B002FECD0A9
:1057880001320433E7E74FF0FF30E6E71046E4E77D
:1057980094CC042090CC042098CC042080CC042005
:1057A800A4AC02202DE9F04F0746884687B00029AF
:1057B8004BD10025284607B0BDE8F08F0022CDE97F
:1057C8000122264E0091384621463368FBF7ECF952
:1057D800002832DD326813685B4523D15668C6F36A
:1057E8001E06AE4215DD104610210592FFF792FF06
:1057F800059A1369834213D1C8F80040354601342D
:10580800DAF80010D9F80030B3FBF1F3A342D5D889
:10581800D0E7134B1B681BB13246294611489847FD
:105828002E46EBE75A1CC5D00D4A1568002DC0D08E
:10583800224639460C48A847BBE7094B1B68002B92
:10584800EED0224639460948E9E70024DFF820A0CF
:105858002546DFF82090DFF820B0D1E784CC04207B
:1058680080CC0420C3AC0220F0AC022021AD022081
:10587800984904209C4904204D4266532DE9F04F75
:1058880001280746DFF85CB187B00ADDDBF8003095
:105898001BB9002007B0BDE8F08F0146474898477C
:1058A800F7E7DFF84481002863D1B8F80060B8F85A
:1058B8000250002E62D0304604A9FFF773FF8146DC
:1058C800002D5DD0284605A9FFF76CFF0446DBF8DC
:1058D80000A0BAF1000F05D02346324649463848A1
:1058E8000095D047A145D4D04FF0000298BF2E466E
:1058F80007F1080394BF28F8135028F81360CDE97E
:105908000122304B88BFDDF810A01B6898BFDDF876
:1059180014A0DFF8D880009351463046D8F80030FC
:1059280088BF4C46FBF740F90028DBF8005038DD0B
:10593800D8F80080244BD8F800209A422BD11021A7
:105948004046FFF7E7FED8F81020014682421ED1F4
:10595800D8F80410C1F31E01A14213D14FF402720A
:105968001A48414602FB070005F08AF80DBB20469D
:1059780090E7B8F80460B8F806509AE7B1469FE790
:105988002C46A4E715B122461148A847FEE70DB1F9
:105998001048A847FEE71DB1524631460E48A847B1
:1059A800FEE7002D3FF475AF524631460B48A84735
:1059B8006FE721460A48A847D9E700BF3FAD022054
:1059C80053AD0220984904204D42665398CC0420D8
:1059D80079AD0220C3AD0220D5AD02200AAE022067
:1059E80036AE022080CC0420A8D0042084CC042029
:1059F8002DE9F04305460024134F144EDFF850807C
:105A080085B039683368B3FBF1F3A34202D84FF08D
:105A1800FF3415E00022CDE90122DFF8389000912B
:105A280028462146D9F80030FBF7BEF820B1D9F84E
:105A380000301B68434501D10134E2E70133FBD153
:105A4800204605B0BDE8F083984904209C4904200D
:105A58004D42665384CC0420F0B5044685B080B22C
:105A68001F460D461646FFF769FE431C08D10A4B30
:105A78001B6813B1214609489847002005B0F0BDBE
:105A88000C9B324602930B9B294601930A9B009379
:105A98003B46FBF789F8F1E780CC042049AE0220A9
:105AA800014B1868704700BF98490420F7B50446B1
:105AB80008460E46FFF79CFF051E25DB134B1A68A8
:105AC800134B1B68B3FBF2F39D421DDA114FFF2104
