:020000040040BA
:10000000A81940207D0240005D034000A9080000BF
:10001000E5080000C7024000C7024000C7024000D8
:10002000000000000000000000000000C7024000C7
:10003000C7024000000000000D080000890D4000CC
:10004000B50C4000A14F0000C7024000C7024000AD
:10005000C7024000C7024000C7024000C70240007C
:10006000C7024000C7024000C702400061730000A1
:10007000C7024000C7024000C7024000015900000B
:10008000C7024000C702400055094000C7024000B7
:10009000C7024000C7024000C70240004D0A4000AE
:1000A000C7024000C7024000C7024000C70240002C
:1000B000C7024000C7024000C7024000C70240001C
:1000C0000000000000000000000000000000000030
:1000D0000000000000000000000000000000000020
:1000E0000000000000000000000000000000000010
:1000F0000000000000000000000000000000000000
:100100000348044B834202D0034B03B118477047A6
:10011000A4154020A415402000000000064B07490C
:10012000C91A891048BF0131491003D0044B0BB1E3
:1001300001481847704700BFA4154020A41540206F
:100140000000000010B5064C237843B9FFF7D8FF34
:10015000044B13B10448AFF300800123237010BD9A
:10016000A8194020000000004C15400008B5054BC0
:100170001BB105490548AFF30080BDE80840FFF713
:10018000CDBF00BF00000000AC1940204C1540005E
:100190007047704737B540F6B832084B084C9D6C35
:1001A0002368EB1A934206D900F02CF901A900F05C
:1001B00039F900B9256003B030BD00BF000004402C
:1001C000C419402007B50B4B93F8DB3073B10A4BD1
:1001D0000A489A6C0A4B1A6055F492FD142000F0FC
:1001E00017F900F00FF901A900F01CF9002003B085
:1001F0005DF804FB00FD4020000004409501400034
:10020000C41940200020704708B501F4D1FE4FF01A
:1002100080421369012123F0030343F001031361BA
:100220001369022043F010031361032202F48CF8D7
:10023000BDE80840FFF7ACBF7047000008B50B4AA7
:100240000B4B9A60D3F8882042F03F02C3F8882015
:10025000FFF7F2FF50F4BAF905F476FE00F065FC02
:1002600051F436F8034B044A1A6008BD0000400000
:1002700000ED00E06815402040787D01DFF848D0AF
:10028000124880F30A88FFF7D9FF114C114DAC4298
:1002900009DA21686268A368043BA2BFC858D0503D
:1002A000FAE70C34F3E70C4B0C4CA34208DA19685C
:1002B0005A680020043AA4BF8850FBE70833F4E7EB
:1002C00000F042FEFEE7FEE7A8194020A8154020F6
:1002D0006015400060154000601540006815400042
:1002E00000207047704708B5FFF78EFFFFF7FAFF51
:1002F00000F0DFF9032001F4FBFE002000F041FDD7
:10030000003818BF012008BD024A1368013313608A
:10031000704700BFC8194020034670B5B8B142F21B
:1003200010754FF0E026AB4284BFA3F51C5442F297
:100330001073326998BF0024184688BF103CD30759
:1003400008D501F4A5FC2346002CECD101E001F412
:10035000BDFC70BD01F4BAFCF5E7000008B5054B23
:100360001B695B0002D500F0B5FB08BD00F0ACFCDA
:10037000FBE700BF00F00040114BF0B598421BD1E5
:10038000032A1BD100241C2707FB04F68D198E5964
:1003900000EBC4135E606E6801341E61EE68A24219
:1003A0009E622E699E636E695E64AE691E65AD686D
:1003B000DD61E9D80020F0BD022AE2E70120FAE77A
:1003C00000000A5007B50021022000F0ADF800211E
:1003D000019001A800F0C4F8003818BF0120404285
:1003E00003B05DF804FB07B50021022000F09CF883
:1003F0000021019001A800F0C5F803B05DF804FBEE
:1004000000F0B0BC014B1878704700BF6C1540205D
:1004100018B1034B1870002070474FF0FF30704741
:100420006C15402073B506460D4601F48EFC00287D
:100430006DD1FFF7C7FF00286CD1384C0120D4F8EC
:1004400014316FF3DC4343F40023C4F81431D4F8BF
:10045000143143F00053C4F81431D4F8143123F4A8
:100460008033C4F81431D4F81431C4F81431D4F8FA
:1004700014316FF30F03C4F81431D4F814311E4350
:10048000C4F81461D4F8143143F40033C4F81431BF
:10049000FFF7B6FFD4F81831002BFBDA2048D4F868
:1004A000182101681F4E22F0004271B33368934255
:1004B0001DD2D41AFA2C23D9994221D9C91AFA2962
:1004C0001ED903EB43040D23083403FB0244240923
:1004D0000260042202200DEB02013460019401F459
:1004E000E1FC2C60FFF77FFF002002B070BD07D950
:1004F0009C1AC82C04D9994202D2591AC829DFE79C
:10050000C3EB031414440834E1E71446E0E74FF06A
:10051000FF30EAE76FF00200E7E700BF00000940A4
:10052000D0194020CC194020012808B508D1032952
:100530000ED8084800E00848182303FB010008E033
:10054000012905D80228F6D0B021044800F048FC63
:10055000002008BD00200850002000407411400019
:1005600008B538B1006848B14069002808DB00F0E0
:100570000F0008BD0220FFF7D7FFF4E70420F8E7DB
:100580000020F6E708B530B1006818B1436943F0C0
:100590000043436108BD0220FFF7C6FFF5E770B5D1
:1005A0000546002603681C699C6004B970BDE3071A
:1005B00004D5AB6813B12846F1B2984764080136F8
:1005C000F3E7000010B5044618B915210C4800F0F7
:1005D00007FC237D072B03D91621094800F000FCF6
:1005E0002368227D103303EB0213A26863605A6014
:1005F0006368E26800209A600123237610BD00BF83
:100600003B124000012210B5037D046802FA03F397
:10061000B1B161680B4343F4803363600468017DCA
:10062000A3688A40134343EA0243A360C27C837DEC
:1006300043EA02434268136002220276002010BDA2
:10064000A16843EA034321EA0303A360F5E701231A
:100650000268007D516883400B435360704700007F
:10066000F8B5431C14D010F0E00FC0F38126C0F39E
:100670000125C7B204D04FF4F6610C4800F0B0FB7E
:100680003EB9AD0005F1A04410340123BB40236006
:10069000F8BD012E04D1AD0005F180440834F4E723
:1006A00040F2C271014800F09BFBEEE79B12400054
:1006B000704708B5FFF7FCFF08BD0000F8B5124E03
:1006C000124B134C336020332360124A124B134FEA
:1006D0001A60134B134D3B6003F5E6732B60124B0E
:1006E00002F56B7211481A6005F4B0F93968306888
:1006F0004FF4E67254F47EFA20684FF4E6722968EB
:1007000054F478FA0020F8BDE8E6402000E04020EC
:10071000ECE6402040E04020F0E64020F4E64020B7
:1007200050E04020F8E64020FCE640207D590000E3
:10073000044A054B1A60013A12680AB11B6818474F
:10074000704700BF01604000D419402010B501205F
:1007500000F046F951F4D0FE01F4F7FA28B950F44C
:100760007DFDFFF74FFE50F46DFD032050F47AFD40
:1007700000240E230C4A0D491046C2E907441375A4
:1007800053F446FC0A4855F4BBFA0A4853F41EFDDC
:10079000FFF7CEFF00F0C2F801F402FE204604F499
:1007A000BDFB204610BD00BFD8194020601340009B
:1007B00055790100B9074000013008B501D001208A
:1007C00008BD17F4BDFA0028F9D10320F8E70000AE
:1007D00008B5094B0246186A10F0200006D0074BF6
:1007E0009A4204D1012904D917F4AAFA08BD0020BD
:1007F000FCE74FF0FF30F9E700000440D819402033
:1008000004F42EBC08B501F4CBFD04F401FCBDE8F2
:100810000840002000F0E4B810B548B1012809D024
:100820004FF40E620449054850F498FD204610BD6F
:100830000224FBE70624F9E7781340000C1340007C
:10084000062238B50D4C02230125A2700322042094
:100850002370E2702371657050F4BEFC438814204D
:10086000023BE37150F4B8FC43886571023B23728C
:10087000A5712046BDE8384050F4DEBCD4EA4020E3
:1008800000B5164A91B0537990795B0003F00203EA
:1008900000F00100184350F4CBFC2822002106A8E8
:1008A00000F060FC4FF400720D4B0621CDE90332DD
:1008B0000023CDE901314FF4277301224FF4805119
:1008C000009306A84FF400534FF402FE06A804F468
:1008D00093FB09F497FA11B05DF804FBD4EA4020C9
:1008E00000FE402010B50020FFF796FF084B53F89C
:1008F00020309847044628B940F653220549064857
:1009000050F42CFD2046BDE81040002150F4BCBC42
:10091000CCFD05006C1340000E13400008B5FFF736
:100920008FFFFFF7ADFFFFF7DDFF08BD074BD3F8E3
:100930009820C2F30B03120544BF83F47F6383F056
:100940000F0313B1024A1268136070470040084059
:100950007015402010B5074B1C6852F47DF8A307B2
:1009600004D50548FFF773FEFFF7E0FFBDE8104030
:1009700052F48AB800C00040181A402070B51646DC
:100980001C225043114D124A2C182A500122227564
:10099000104A05201268E074A26000221220A1759E
:1009A0001146E260A674238201F480FB2046FFF723
:1009B00009FE28B14FF4CB720749084850F4CEFC29
:1009C0002046BDE870400121FFF71CBE181A4020E8
:1009D00000C00040701540208513400011134000F6
:1009E00010B528B10022084B1B681A605A601A81A2
:1009F0004FF48160FFF734FEBDE810400023692109
:100A00001A461846FFF7BABF70154020072910B5DF
:100A10000C4604D934220A490A4850F49FFC0A4B78
:100A20005A6AE240D20703D51CB9986A15F488FEC9
:100A300010BD03EB8403986ABDE8104015F464BE52
:100A4000901340001A13400098E4402008B552F477
:100A500003F80348FFF7A3FDBDE8084052F414B8BB
:100A60007415402008B5064A0648136943F0005340
:100A7000136150F491FC044851F4CAFD002008BDF4
:100A800000F00040AD0A40008D0A400010B5064C51
:100A900023695B0006D4012001F4ACFA236943F01A
:100AA00080532361012010BD00F0004010B5084CB8
:100AB00023695B000AD4012001F49CFA236943F006
:100AC00080532361BDE8104000F01EBB10BD00BF85
:100AD00000F0004008B551F4BFFF40F2791204491C
:100AE000044850F43BFCBDE8084051F4CDBF00BFC2
:100AF000B01340000C13400070477047012908B53F
:100B000001D8002008BD15F4B9FD08B90720F9E7A0
:100B100015F4D2FD0028F9D0024B5A6A1B6A1A421A
:100B2000EFD0F3E700000440704708B500F0B6FCD2
:100B300008BD0000014B1878704700BF54FD4020ED
:100B400010B50F4C236A9A0606D459F457FE236A4F
:100B50009B060BD4002010BD0A4B002BF5D0FFF7ED
:100B60004FFE0028F1D04FF0FF30F4E7064C236829
:100B7000002BEFD0FFF746FE00232360EAE700BF1B
:100B80000000044001084000A41A402010B50022D3
:100B9000FC210C4854F436FD01200B4953F41AFB98
:100BA0000A49002053F434FA15F464FC084B094C4C
:100BB0009B6CA36055F414FB0123E06023700020BC
:100BC00010BD00BF80154020E4134000D813400042
:100BD00000000440841A402070470000F8B52C4BF8
:100BE00019600239032905D8DFE801F04A410902FA
:100BF000FFF7F2FF274B5A6A274B1A603FE00920A4
:100C000053F44AF804464568071DBD421DD1214EE4
:100C1000FFF796FFB26C214B21489A6151F43AF8E4
:100C2000054618B10422012150F4BAFF736C1D4827
:100C300023F00103736401F471F86468BC420CD1C1
:100C400015F4BCFE15F4EEFED4E7A5F10C00042269
:100C5000022150F4A5FF2D68D7E7A4F10C008542CE
:100C600003D00422012150F49BFF2468E6E759F4E5
:100C700063FC084B00289A6C084B9A61BADBF8BDFC
:100C800059F4A6FC034B9A6C044B9A61B2E700BF7F
:100C9000C0E840200000044058FD4020841A402055
:100CA0004113400000000840014BD860704700BF6E
:100CB000841A402008B551F4CFFE00F493FBBDE840
:100CC000084051F4E1BE704738B5184B1A682ABB8A
:100CD0000124174D1C602B695A001FD4FFF7F3FF46
:100CE000204601F487F92B69204643F080532B619D
:100CF000104B114D4BF681342B6000F033F8342249
:100D00002B68DA602B685B699B0708D4012000F030
:100D100029F8074A136843F00103136038BD013C0A
:100D2000F4D0012000F4D2FFECE700BFA81A402065
:100D300000F0004000B00040AC1A402010B5C26A7C
:100D4000816A043A04460A44054BD0E9080151F48B
:100D500085FCE061A16ABDE8104000F02DB900BF3C
:100D6000D15A050007B50190019B13B903B05DF896
:100D700004FB4FF47A70FFF7CFFA019B013B01931C
:100D8000F2E700207047000070B5144D51F464FE86
:100D90006B6AFFF7B9FA55F423FAEB6A04469B062F
:100DA00005D455F425FABDE8704051F46DBEAD6C24
:100DB000461C01F42FF901230246294630464FF420
:100DC0008BFD8442EFD08642EBD055F411FA55F4F6
:100DD0000FFAA01CFFF768FFE5E700BF0000044022
:100DE000002307B540F24F2205490648019350F40D
:100DF000B5FA019B002BFCD003B05DF804FB00BFEB
:100E0000EC1340000C1340007047000008B5FFF7DA
:100E1000FBFFFFF768FA084854F4C8FFFFF7B9F979
:100E200051F43AFC51F482FC0449054854F49CFB0B
:100E3000BDE8084000F00EB83D0D4000005C4020C9
:100E4000B81C4020002070470020704700207047E9
:100E50000020704738B5044C044DAC4200D338BD77
:100E600054F8043B9847F8E7241540002815400043
:100E700038B5054C054DAC4200D338BD54F8043BA1
:100E8000002BF8D09847F6E7281540004815400099
:100E900013B502248DF8064054F4D8FF90F835308D
:100EA0008DF8073054F4D2FF21460DF1060254F4B8
:100EB000E1FCFFF7DDFF54F4C9FF21460DF1070205
:100EC00054F4D8FCFFF79EF902B010BD7047000043
:100ED0000223142213B50B49CDE900320A484FF41E
:100EE0008063002254F40EFD044628B94FF4B37217
:100EF0000649074850F432FA204602B0BDE81040D7
:100F000055F442B8910E400045134000FD134000D7
:100F10004A13400008B5FFF761F4FFF705FEFFF73D
:100F200075FFFFF707FE08B954F483FA54F498FCF0
:100F300054F46CFCFFF7CCFF54F49AFC00F01EF85C
:100F400054F47AFC002008BD08B5FFF7BFFFFFF797
:100F5000E1FF002008BD000038B50024064D55F81B
:100F6000043B03B198470134042CF8D154F44AFEF1
:100F700054F488FBF1E700BFECEF40201FB50723D6
:100F80002022CDE902324FF400730193064B074A49
:100F9000009307490023074854F4CCFE054805B0E8
:100FA0005DF804EB54F4F0BFB81A4020590F40002C
:100FB0005913400070EF402070470000EFF310809D
:100FC00072B6704780F31088704740BF5F4A13685D
:100FD000012B04D04FF0010313605D4A10605D4A9D
:100FE00011605D484FF0805101607047EFF310824F
:100FF00072B656480168C9B14FF00001016054480B
:10100000016849B1EFF3098121E9F00FEFF30B8497
:1010100041F8044D006801604E490968096810C92B
:1010200084F30B88B1E8F00F81F3098882F310880C
:101030004EF0040E704749484FF47F01D0F800206D
:1010400041EA0201016070474249086040494FF09F
:10105000000008603D494FF0010008603F484FF430
:101060007F01D0F8002041EA020101603A484FF0C8
:10107000805101603A480068006800BF80F308882A
:1010800061B662B6704700BF20BF7047EFF30880BB
:101090001EF0040F01D0EFF3098020E9F00FEFF309
:1010A0000B8440F8044D40F804ED1EF0040F02D00C
:1010B00080F3098801E080F3088800B551F4AFFAA5
:1010C0005DF804EB4EF0040E7047EFF308801EF05D
:1010D000040F01D0EFF3098020E9F00FEFF30B8448
:1010E00040F8044D40F804ED1EF0040F02D080F3E8
:1010F000098801E080F3088800B551F493FA5DF89F
:1011000004EB4EF0040E704710B4EFF3038410B4F8
:101110007C4600B500B54DF804CD0FB4089C2DE910
:10112000F00FEFF30B8410B4684651F437FA10BC9B
:1011300084F30B88BDE8F00F0FBC5DF804CB5DF8BD
:1011400004EB10BC10BC10BC70470000A4F8402099
:1011500074F8402078F8402004ED00E020ED00E035
:1011600008ED00E002440346934200D1704703F8C3
:10117000011BF9E7443A5C696F7470726F6A6563CA
:10118000745C4C434853505C4F70656E5369466CB9
:10119000695C67697468756273646B5C5369466CFB
:1011A000692D53444B5C76322E355C5369466C692D
:1011B0002D53444B2D56322E355C64726976657220
:1011C000735C68616C5C6266305F68616C5F6D6106
:1011D000696C626F782E6300443A5C696F74707258
:1011E0006F6A6563745C4C434853505C4F70656E26
:1011F0005369466C695C67697468756273646B5C9B
:101200005369466C692D53444B5C76322E355C53E2
:1012100069466C692D53444B2D56322E355C6472F1
:1012200069766572735C68616C5C6266305F686188
:101230006C5F70696E6D75782E6300443A5C696FFF
:101240007470726F6A6563745C4C434853505C4FB2
:1012500070656E5369466C695C6769746875627322
:10126000646B5C5369466C692D53444B5C76322E3B
:10127000355C5369466C692D53444B2D56322E35DF
:101280005C647269766572735C68616C5C6266301E
:101290005F68616C5F7074632E6300443A5C696FD1
:1012A0007470726F6A6563745C4C434853505C4F52
:1012B00070656E5369466C695C67697468756273C2
:1012C000646B5C5369466C692D53444B5C76322EDB
:1012D000355C5369466C692D53444B2D56322E357F
:1012E0005C647269766572735C68616C5C626630BE
:1012F0005F68616C5F7263632E630063616C6C6234
:1013000061636B20213D204E554C4C003000746CC5
:101310000052545F46414C534500715F6964782028
:101320003C204950435F48575F51554555455F4EF6
:10133000554D0048414C5F4F4B203D3D206572723A
:101340000070696E006D61696E0074696420213DF2
:101350002052545F4E554C4C007469646C6500001B
:10136000D10740000000000000000000706F7274A0
:101370005F636F6E66696700726F6D5F706F727426
:101380005F676574007074635F636F6E66696700A2
:1013900068637075326C6370755F6E6F74696669CF
:1013A000636174696F6E5F63616C6C6261636B0033
:1013B0004442475F547269676765725F495251489A
:1013C000616E646C657200706D5F70696E5F7265EE
:1013D00073746F7265000000FD0A4000FB0A400054
:1013E000000000000A0000000300000048414C5FBC
:1013F0004173736572744661696C65640072745FF1
:101400006170706C69636174696F6E5F696E697435
:101410000000000010B5044620B940F6D7110A4874
:10142000FFF7DEFC2268094B00201A6062685A60F0
:10143000A2689A60E268DA60226903F540439A6321
:101440006269DA6310BD00BFD8114000003000406F
:101450007047704708B50C48FFF7DCFF28B140F231
:1014600085120A490A484FF479FF022209490A48BD
:10147000FEF782FF38B1BDE8084040F28912034907
:1014800003484FF46BBF08BD341A4020C713400017
:10149000331340004C1A40200000084038B5164C69
:1014A000236803F00303032B144B02D000221A70AD
:1014B00038BD01251D7055F425FC114A136943F010
:1014C00000531361636C23F002036364FFF7C2FFF0
:1014D000636C23F001036364FEF705FFFFF77EF101
:1014E000084B1D60FEF755FE51F4D6F8FFF7B3F137
:1014F0004FF4C4FBDCE700BF0000044054FD402073
:1015000000F00040A41A4020F8B500BFF8BC08BCA9
:101510009E467047F8B500BFF8BC08BC9E467047B1
:10152000450E4000490E40004D0E40008D0B40001E
:10153000E1A60200C5014000EDAC0500BD0640007B
:101540004D074000650A4000510E400000000000B9
:101550002CEDFF7FB0B0B08088EDFF7F0100000070
:08156000A8194020100300004F
:10156800006CDC02C80000009027084000200850EA
:10157800000000000D0A4000DD0B4000511440003F
:10158800DDAB0500F5AB050053144000F90A400037
:0C1598008DAB05006D01400045014000D6
:0400000500400F495F
:00000001FF
